:020000040000fa
:080000000001040000000000f3
:020000040000fa
:10000800d8010000a8010000ae010000b401000002
:10001800ba010000d8010000d8010000d801000092
:10002800d8010000d8010000d8010000d801000064
:10003800d8010000d8010000d8010000d801000054
:10004800d8010000d8010000d80100009401000088
:10005800d8010000d8010000d8010000d801000034
:10006800d8010000d8010000d8010000d801000024
:10007800d8010000d8010000d8010000d801000014
:10008800d8010000d8010000d8010000d801000004
:10009800d8010000d8010000d8010000d8010000f4
:1000a800d8010000d8010000d8010000d8010000e4
:1000b800d8010000d8010000d8010000d8010000d4
:1000c800d8010000d8010000d8010000d8010000c4
:1000d800d8010000d8010000d8010000d8010000b4
:1000e800d8010000d8010000d8010000d8010000a4
:0800f800d8010000d80100004e
:020000040000fa
:10010800d8010000c0010000c6010000cc010000b9
:10011800d2010000d8010000d8010000d801000079
:10012800d8010000d8010000d8010000d801000063
:10013800d8010000d8010000d8010000d801000053
:10014800d8010000d8010000d80100009401000087
:10015800d8010000d8010000d8010000d801000033
:10016800d8010000d8010000d8010000d801000023
:10017800d8010000d8010000d8010000d801000013
:10018800d8010000d8010000d8010000d801000003
:10019800d8010000d8010000d8010000d8010000f3
:1001a800d8010000d8010000d8010000d8010000e3
:1001b800d8010000d8010000d8010000d8010000d3
:1001c800d8010000d8010000d8010000d8010000c3
:1001d800d8010000d8010000d8010000d8010000b3
:1001e800d8010000d8010000d8010000d8010000a3
:0801f800d8010000d80100004d
:020000040000fa
:100200004f8020000e9f20000e018800000000009b
:1002100000012000200288000c000700402a200076
:100220000100200011000700000020000000e00095
:10023000020032000000020000000000b0020200d4
:10024000000000000040da000000fe004440a90069
:10025000000020000000e000030032000000200049
:10026000a00188004440a800000006009101880019
:10027000800078000000eb0015003700e2804000ad
:1002800032a0b4009101ba00e280400032a0b40074
:100290009102ba00e280400032a0b4000002eb00fc
:1002a000472bde00f507b200602ce10004003a00a5
:1002b0000059eb008301e900fdff3e000400370018
:1002c0006128e100010032000082eb000400070019
:1002d0001101ba000200e000e8ff3a000000060049
:1002e0003159ba008301e9000c0032002159ba00eb
:1002f0008301e900080032000400e00003003a0036
:10030000e280400032a0b400f5ff370011d9ba00f6
:100310008301e900faff3a008100e800e180400033
:1003200032a0b40000000600841f78000000fa002c
:1003300004148000044088001414800014408800d5
:100340008560a9000080fa004f0278000040060096
:100350000000fa008020a900ffff37000000fa002b
:100360008060a900ffff37000000fa008040a9006c
:10037000ffff37000000fa008080a900ffff370070
:100380000000fa008020a900ffff37000000fa00fb
:100390008060a900ffff37000000fa008040a9003c
:1003a000ffff37000000fa008080a900ffff370040
:0803b0000000fa00ffff370016
:020000040000fa
:1003b8000000fa00740020003416880004012000b0
:1003c800441688000002eb00c416880003000700ea
:1003d8002c0007000080fa00000006000000fa0068
:1003e800041580000480a1000490a1000415880071
:1003f800041580000450a0000460a0000470a00050
:1004080004158800a042a800a062a8001415800066
:100418000420a0000430a1000440a1000450a10061
:1004280014158800141580000480a0000490a00012
:100438001415880025158000f40f2e000482620030
:10044800241588002515800004fc2f000482620012
:100458000420a000241588000002eb003415880051
:100468000002eb005415880084ff2f004415880013
:100478008560a9008d60a800a1e2a8000080fa00ac
:10048800000006000000fa00a42a2000240e8800bc
:10049800a42a2000b40e8800a42a2000c40e8800d4
:1004a800a42a2000d40e8800640e80000460a100f5
:1004b8000470a100640e8800650e800004fc2f0003
:1004c800048262000410a000640e8800640e80009c
:1004d80004e0a10004f0a100640e8800650e80000d
:1004e800f40f2c0084826200042020000482720031
:1004f800640e8800040e80000400a1000410a1000e
:10050800040e8800c801a800c881a800c821a80056
:10051800c8a1a800c841a800c8c1a800d401a90062
:10052800d421a800d441a900d461a800d481a9008d
:10053800d4a1a800c1e1a8000080fa0000000600cc
:020000040000fa
:100548000008000004000000020000000000000095
:0805580000000000000000009b
:020000040000fa
:100560000000fa000200070093ff0700ffff3700ba
:0c0570000000fa000080fa000000060005
:020000040000fa
:0200000401f009
:04000000f63f0000c7
:020000040000fa
:0200000401f009
:04000400ff7f00007a
:020000040000fa
:0200000401f009
:040008006cff000089
:020000040000fa
:0200000401f009
:04001400ffff0000ea
:00000001FF
