:020000040000fa
:080000000001040000000000f3
:020000040000fa
:10000800bc0300008c03000092030000980300006a
:100018009e030000bc030000bc030000bc030000fa
:10002800bc030000bc030000bc030000a0020000e9
:10003800e6020000bc030000bc030000de02000072
:10004800bc030000bc030000bc03000094010000d6
:10005800bc030000bc030000bc0300005e020000fb
:10006800bc030000bc030000bc030000bc0300008c
:10007800bc030000bc030000bc03000064030000d4
:10008800bc030000bc030000bc030000bc0300006c
:10009800bc030000bc030000bc030000bc0300005c
:1000a800bc030000bc030000bc030000bc0300004c
:1000b800bc030000bc030000bc030000bc0300003c
:1000c800bc030000bc030000bc030000bc0300002c
:1000d800bc030000bc030000bc030000bc0300001c
:1000e800bc030000bc030000bc030000bc0300000c
:0800f800bc030000bc03000082
:020000040000fa
:10010800bc030000a4030000aa030000b003000021
:10011800b6030000bc030000bc030000bc030000e1
:10012800bc030000bc030000bc030000a0020000e8
:10013800e6020000bc030000bc030000de02000071
:10014800bc030000bc030000bc03000094010000d5
:10015800bc030000bc030000bc0300005e020000fa
:10016800bc030000bc030000bc030000bc0300008b
:10017800bc030000bc030000bc03000064030000d3
:10018800bc030000bc030000bc030000bc0300006b
:10019800bc030000bc030000bc030000bc0300005b
:1001a800bc030000bc030000bc030000bc0300004b
:1001b800bc030000bc030000bc030000bc0300003b
:1001c800bc030000bc030000bc030000bc0300002b
:1001d800bc030000bc030000bc030000bc0300001b
:1001e800bc030000bc030000bc030000bc0300000b
:0801f800bc030000bc03000081
:020000040000fa
:100200000f9320000e9f20000e01880000000000c8
:1002100000012000200288000c0007004087200019
:100220000100200011000700000020000000e00095
:10023000020032000000020000000000b2080200cc
:10024000000000000040da000000fe004440a90069
:10025000000020000000e000030032000000200049
:10026000a00188004440a800000006009101880019
:10027000800078000000eb0015003700e2804000ad
:1002800032a0b4009101ba00e280400032a0b40074
:100290009102ba00e280400032a0b4000002eb00fc
:1002a000472bde00f507b200602ce10004003a00a5
:1002b0000059eb008301e900fdff3e000400370018
:1002c0006128e100010032000082eb000400070019
:1002d0001101ba000200e000e8ff3a000000060049
:1002e0003159ba008301e9000c0032002159ba00eb
:1002f0008301e900080032000400e00003003a0036
:10030000e280400032a0b400f5ff370011d9ba00f6
:100310008301e900faff3a008100e800e180400033
:1003200032a0b40000000600811f7800849fbe0048
:10033000869fbe000000fa00664880007748800073
:100340006448800075488000ce28dd004222de002f
:1003500004827000c22ade000403530085835b0020
:1003600014148000050020000602420087824a0023
:100370006448880075488800864880009748800057
:100380008448800095488000ce28dd004222de00af
:1003900004827000c22ade000403530085835b00e0
:1003a00024148000050020000602420087824a00d3
:1003b0008448880095488800a6488000b748800097
:1003c000a4488000b5488000ce28dd004222de002f
:1003d00004827000c22ade000403530085835b00a0
:1003e00034148000050020000602420087824a0083
:1003f000a4488800b5488800d6488000644880003a
:1004000075488000ce2bdd004222de00048273009e
:10041000c22ade00c233dd00068a200006834300c4
:10042000048bbe00d6488000844880009548800038
:10043000ce28dd004222de0004827000c22ade00e7
:10044000c233dd000680200006834300048bbe001b
:10045000d6488000a4488000b5488000ce2bdd003f
:100460004222de0004827300c22ade00c233dd00b5
:100470000685200006834300048bbe00d44880001c
:100480000402e800d4488800d4488000f30f5200ea
:10049000020036000002eb00d448880004148000fb
:1004a000344888008560a9000080fa004f03be0030
:1004b0004f02be00cf00780000400600841f780085
:1004c0000000fa004416800068026200e00f52004b
:1004d0000a003a004416800068026200e00f5200f1
:1004e00006003a0014c0b3000002fd0024e9b70082
:1004f0000002fd00cfc2a800c1e1a80044168000a0
:1005000068026200e00f52000900320044168000c9
:1005100068026200e00f5200050032000042eb006a
:100520000400780024e9b700cfc2a900c1e1a90006
:1005300085e0a9000080fa004f0278000040060024
:10054000849fbe000000fa00044980000402e80015
:10055000044988000549800044062000848f520029
:10056000120036000002eb000449880014c0b300fa
:100570000002fd0022e9b7000002fd00f4488000ff
:100580000402e800f4488800f54880004406200092
:10059000848f5200050036000002eb00f44888000a
:1005a00014c0b3000400780023e9b7008460a900f8
:1005b0000080fa004f02be00004006000000fa0072
:1005c00084e0a9000080fa0000400600849fbe007d
:1005d000861f78000400fa00240a8000040f7800c7
:1005e000240a8000140798008480a9001e0290004d
:1005f0009e0f520008003600c44880009e02900002
:100600009e82520004034200048f20000402430033
:10061000050a780009003700c4488000750880008a
:100620001e8352009e029000850243000403420094
:10063000048f200004024300050a7800d4912000b2
:1006400014427800e04f52000a003200c4912000aa
:1006500014427800e04f520003003200d501a90097
:10066000d541a8000c003700d501a800d541a9004c
:1006700009003700c491200014427800e04f520076
:1006800003003200d501a800d541a90002003700bf
:10069000d501a900d541a800c44880000402e800a3
:1006a000c4488800c4488000ea0f520002003600a7
:1006b0000002eb00c44888000080fa004f03780075
:1006c0004f02be0000400600841f78000000fa00c0
:1006d0001404800064026200e00f52000600320041
:1006e0008240a9000042eb000002fd001ce9b700b7
:1006f0000002fd00040037008240a80014c0b300cf
:10070000040078001ce9b70086e0a9000080fa0028
:100710004f027800004006000000fa008020a90087
:10072000ffff37000000fa008060a900ffff3700dc
:100730000000fa008040a900ffff37000000fa0027
:100740008080a900ffff37000000fa008020a90088
:10075000ffff37000000fa008060a900ffff3700ac
:100760000000fa008040a900ffff37000000fa00f7
:100770008080a900ffff37000000fa00ffff37006c
:100780000001be001b0007000470a70003f0a100d9
:1007900003f8a30013003a006509b100100032000d
:1007a000090035006928e100020035000100280039
:1007b0000000050000004000818048008502e9003b
:1007c000fcff3a0000000600f88f420005003500eb
:1007d0008100d1000080d3008502e800fcff3a00d0
:1007e000000006008000eb00000005006011b8006a
:1007f00049003700c70ade00f107b200f50fb2006a
:1008000008003200e1cf4200020032000170a00077
:1008100024000500810f700001003200040805006b
:1008200044000500810f700002003a00140005002a
:100830008502e9000000400081c04800fcff3b0049
:100840000170a00024000500889fbe008a9fbe00a2
:100850008c1f7800850007008c00330003866c0035
:100860006450e100240032006420e10027003200df
:100870006150e100220032006120e10021003200dd
:100880008b854200eb07b1000134b800003ab80094
:100890000804420089844a00013ab8000030b800d8
:1008a0008880400009014a00040033000000400035
:1008b00081804800020149008b05e900c909dd007b
:1008c000830170000100320013002000c814de0014
:1008d0004814dd004709de001200b200c808de003f
:1008e000088470003b00070001f0a1000cf0a70095
:1008f00001f0a0006e0037006120e10070003200be
:100900000801be000200be00f7ff37006150e100a1
:10091000fcff3a006a003700889fbe008a9fbe0035
:10092000008270000402710004827100260032000f
:100930000004be000200be006011b8006b09200078
:10094000950220000182cf000a0039000541b10064
:100950000082cf00070039000541b1000982cf00b5
:10096000040039000541b1000882cf0001003900c0
:100970000541b10005425200120032000a003b005e
:1009800082817100610164008100d1000080d30088
:100990008984d3000884d3008b05e8000442e80072
:1009a000f7ff3a00070037000804440089844c0030
:1009b00000004800818048008b05e9000442e900fe
:1009c000f9ff3a00030007004f05be004f04be00c8
:1009d0000000060081002000618055000b003d00f2
:1009e0000b00200061fe2f000100e1001d0034001b
:1009f00082817100610164008904d1000884d30000
:100a00000000e800faff3a00710020006100640075
:100a1000030070000200600009003200610444001d
:100a2000e0844c000988a500050032008b05e80031
:100a30006808e10002003a008904d1000884d3006c
:100a4000f20f20000258e10005003d00c75ddd0007
:100a5000f907b200898075000800780000000600e0
:100a60000bf827008b007800000005000004be0092
:100a700060ff07000003be000405be000200be00c8
:100a80005cff0700844f7500000006000200be00f6
:100a90006450e100050036006420e10002003600e9
:100aa0000968a30001003a000800be000160a00030
:100ab0004f0678004f05be004f04be000000060040
:0c0ac000f0ff2f00f1ff2700f9ff3700c6
:020000040000fa
:100acc000000fa00f4002000341688000002eb004d
:100adc00641688002400200094168800041020005e
:100aec00c41688000002eb00f4168800c0a0a80011
:100afc00d404800004c0a00004d0a00004e0a00036
:100b0c00d4048800c4a0a80085e0a9008de0a8004a
:100b1c000800070019000700860007009600070070
:100b2c006800070059010700a40007000080fa00c4
:100b3c00000006000000fa0084ff2f004415880016
:100b4c00c40e2000041588003400200034158800e1
:100b5c000002eb0054158800243020002415880076
:100b6c00c4302000141588008560a9008d60a80091
:100b7c00a1e2a8000080fa00000006000000fa00c4
:100b8c0034498000454980008502d1000482d3009d
:100b9c0004027800240e8800240e80000402420017
:100bac00050020000400be000dff07000002be007f
:100bbc003233230033f323000400be001fff070071
:100bcc000002be000400be00eafe07000002be00e8
:100bdc0004027800b40e8800240e80000402420047
:100bec00050020000400be00fdfe07000002be0050
:100bfc003233230033f323000400be000fff070041
:100c0c000002be000400be00dafe07000002be00b7
:100c1c0004027800c40e88000002eb00440e880029
:100c2c00640e80000460a1000470a100640e8800b2
:100c3c00650e800004fc2f0004826200f401b300f6
:100c4c00640e8800640e800004e0a10004f0a10092
:100c5c00640e8800650e8000f40f2c008482620004
:100c6c0004f0210004827200640e8800040e8000df
:100c7c000420a1000430a100040e8800040e8000a2
:100c8c000400a1000410a000040e880024f0200031
:100c9c00540e8800c801a800c881a800c821a8006b
:100cac00c8a1a800c841a900c8c1a900d401a800c6
:100cbc00d421a900d441a800d461a9000080fa0075
:100ccc00000006000000fa00340a80000400a100b5
:100cdc000410a1000420a100340a880046e1a900f8
:100cec0047a1a9004681a9004661a900340a8000e9
:100cfc000450a1000460a100340a8800340a80006a
:100d0c000400a0000410a1000420a100340a8800f3
:100d1c00b40480000400a1000410a0000420a00072
:100d2c00b40488008480a9008c80a8000080fa009c
:100d3c00000006000000fa000002eb002408880006
:100d4c000002eb0004088800244d200014088800e1
:100d5c00a404800004c0a00004d0a10004e0a10001
:100d6c00a40488008460a9008c60a80005e1a80098
:100d7c000080fa00000006000000fa0004032000c6
:100d8c00940888000002eb00540888000082eb00f5
:100d9c0074088800b404800004c0a00004d0a10032
:100dac0004e0a100b404880084e0a9008ce0a80051
:100dbc0013e1a8000080fa00000006000000fa0011
:100dcc000002eb00744988000e003700c882a800ae
:100ddc000042eb000002fd0023e9b7000002fd0019
:100dec000000000034922000144278000404a20099
:100dfc00e04f5200fbff3a00744980000402e80007
:100e0c007449880074498000e10f5200efff3400f0
:100e1c000002eb00744988000e003700c8a2a8003d
:100e2c000042eb000002fd0023e9b7000002fd00c8
:100e3c000000000034922000144278000404a20048
:100e4c00e04f5200fbff3a00744980000402e800b6
:100e5c007449880074498000e10f5200efff3400a0
:100e6c000002eb00744988000d0037000042eb00d3
:100e7c000002fd0023e9b7000002fd0000000000a5
:100e8c0034922000144278000404a200e04f520077
:100e9c00fbff3a00744980000402e80074498800a2
:100eac0074498000e10f5200f0ff34000002eb00a7
:100ebc00744988000e003700db02a8000042eb00ea
:100ecc000002fd0023e9b7000002fd000000000055
:100edc0034922000144278000404a200e04f520027
:100eec00fbff3a00744980000402e8007449880052
:100efc0074498000e10f5200efff3400c882a90052
:100f0c00c8a2a900d402a900db02a9000080fa0043
:100f1c00000006000000fa00449220001442780001
:100f2c00e04f520053003200644880007548800046
:100f3c00c22bde00ce28dd004223de0006837000cb
:100f4c00c40c200005002000840f5300858f5b002b
:100f5c00440036006448800075488000c22bde00d7
:100f6c00ce28dd004223de000683700064262000bc
:100f7c0005002000840f5300858f5b0039003e0074
:100f8c006448800075488000c22bde00ce28dd004e
:100f9c004223de0006837000541d20000500200053
:100fac00840f5300858f5b0011003600644880006d
:100fbc0075488000c22bde00ce28dd004223de0007
:100fcc00068370006426200005002000840f530067
:100fdc00858f5b0006003e00c882a800c8a2a9004d
:100fec000042eb000002fd001de9b7000002fd000d
:100ffc006448800075488000c22bde00ce28dd00de
:10100c004223de0006837000641d200005002000d2
:10101c00840f5300858f5b001a003e0064488000eb
:10102c0075488000c22bde00ce28dd004223de0096
:10103c0006837000c40c200005002000840f5300b0
:10104c00858f5b000e003600c882a900c8a2a800dc
:10105c0014c0b3000002fd001de9b7000002fd0042
:10106c0008003700c882a900c8a2a900c1e1a900e4
:10107c0004003700c882a900c8a2a90001003700eb
:10108c00000000000080fa00000006000000fa00da
:10109c008240a90086e0a900f404800004c0a000ee
:1010ac0004d0a00004e0a000f40488008ee0a800a6
:1010bc000080fa00000006000000fa00050e800017
:1010cc000400280004826200e00f5200010032008c
:0c10dc00c1e1a8000080fa00000006003e
:020000040000fa
:1010e80004090000220000000200000000000000c7
:1010f80000000000000000000000000000000000e8
:1011080000000000000000000000000000000000d7
:1011180000000000000000000000000000080000bf
:10112800040100000000000026090000040000007f
:1011380002000000a9020000000000002a090000c7
:1011480004000000000000002e090000020000005a
:0c11580002000000000000000000000089
:020000040000fa
:101164000000fa000300070057fe07006bff0700aa
:10117400feff37000000fa000080fa0000000600bd
:020000040000fa
:0200000401f009
:04000000f63f0000c7
:020000040000fa
:0200000401f009
:04000400ff7f00007a
:020000040000fa
:0200000401f009
:040008006cff000089
:020000040000fa
:0200000401f009
:04001400ffff0000ea
:00000001FF
