:020000040000fa
:080000000001040000000000f3
:020000040000fa
:100008001e040000de030000e6030000ee0300000b
:10001800f60300001e0400001e0400001e04000079
:100028001e0400001e0400001e04000072020000ee
:10003800be0200001e0400001e040000b6020000fc
:100048001e0400001e0400001e040000b60100008b
:100058001e0400001e0400001e04000034020000fc
:100068001e0400001e0400001e0400001e04000000
:100078001e0400001e0400001e040000fe02000012
:100088001e0400001e0400001e0400001e040000e0
:100098001e0400001e0400001e0400001e040000d0
:1000a8001e0400001e0400001e0400001e040000c0
:1000b8001e0400001e0400001e0400001e040000b0
:1000c8001e0400001e0400001e040000940100002d
:1000d8001e0400001e0400001e0400001e04000090
:1000e8001e0400001e0400001e0400001e04000080
:0800f8001e0400001e040000bc
:020000040000fa
:100108001e040000fe030000060400000e040000a8
:10011800160400001e0400001e0400001e04000057
:100128001e0400001e0400001e04000072020000ed
:10013800be0200001e0400001e040000b6020000fb
:100148001e0400001e0400001e040000b60100008a
:100158001e0400001e0400001e04000034020000fb
:100168001e0400001e0400001e0400001e040000ff
:100178001e0400001e0400001e040000fe02000011
:100188001e0400001e0400001e0400001e040000df
:100198001e0400001e0400001e0400001e040000cf
:1001a8001e0400001e0400001e0400001e040000bf
:1001b8001e0400001e0400001e0400001e040000af
:1001c8001e0400001e0400001e040000940100002c
:1001d8001e0400001e0400001e0400001e0400008f
:1001e8001e0400001e0400001e0400001e0400007f
:0801f8001e0400001e040000bb
:020000040000fa
:100200006f8820000e9f20000e0188000000000073
:1002100000012000200288000c00070020182100a7
:100220000100200011000700000020000000e00095
:10023000020032000000020000000000f211020083
:10024000000000000040da000000fe004440a90069
:10025000a00120000000e0000300320000002000a8
:10026000a00188004440a800000006009101880019
:10027000800078000000eb0015003700e2804000ad
:1002800032a0b4009101ba00e280400032a0b40074
:100290009102ba00e280400032a0b4000002eb00fc
:1002a000472bde00f507b200602ce10004003a00a5
:1002b0000059eb008301e900fdff3e000400370018
:1002c0006128e100010032000082eb000400070019
:1002d0001101ba000200e000e8ff3a000000060049
:1002e0003159ba008301e9000c0032002159ba00eb
:1002f0008301e900080032000400e00003003a0036
:10030000e280400032a0b400f5ff370011d9ba00f6
:100310008301e900faff3a008100e800e180400033
:1003200032a0b40000000600841f78000000fa002c
:1003300014c0b3000400780056e8b700d402a80047
:10034000c882a800c8a2a800d501a900d541a9006b
:100350000042eb00040078005ee8b7008960a90065
:100360000080fa004f02780000400600811f7800ec
:10037000849fbe00869fbe000000fa0016428000e7
:10038000274280001442800025428000c928dd00f9
:100390004722de0004827000c72ade0004035300f7
:1003a00085835b00141480000500200006024200d3
:1003b00087824a0014428800254288003642800025
:1003c000474280003442800045428000cc28dd0056
:1003d0004422de0004827000c42ade0004035300bd
:1003e00085835b0024148000050020000602420083
:1003f00087824a0034428800454288005642800085
:10040000674280005442800065428000c928dd00b8
:100410004722de0004827000c72ade000403530076
:1004200085835b0034148000050020000602420032
:1004300087824a0054428800654288000414800084
:10044000e4418800044380000402e800044388007b
:100450008560a9000080fa004f03be004f02be0075
:10046000cf00780000400600841f78000000fa00ea
:100470004416800068026200e00f52000a003a0051
:100480004416800068026200e00f52000e003a003d
:1004900014c0b3000002fd005ee8b7000002fd00da
:1004a000c1e1a8000800370044168000680262001d
:1004b000e00f5200040032000042eb00040078001c
:1004c0005ee8b700c1e1a80014c0b30004007800e2
:1004d0005ee8b70085e0a9000080fa004f027800ce
:1004e00000400600849fbe000000fa00d442800055
:1004f0000402e800d4428800d4428000ef0f52008a
:10050000160036000002eb00d442880014c0b3008d
:100510000002fd005ce8b7000002fd00c44280005c
:100520000402e800c4428800c54280000432200072
:10053000848f5200090036000002eb00c44288009c
:1005400014c0b300040078005de8b70004438000e5
:10055000144388000002eb00044388008460a90073
:100560000080fa004f02be00004006000000fa00c2
:1005700084e0a9000080fa0000400600849fbe00cd
:10058000861f78000400fa00240a8000040f780017
:10059000240a8000140798008480a9001e0290009d
:1005a0009e0f520008003600744280009e029000a8
:1005b0009e8252000403420044862000040243004d
:1005c000050a780009003700744280007508800031
:1005d0001e8352009e0290008502430004034200e5
:1005e0004486200004024300050a78000080fa00d7
:1005f0004f0378004f02be0000400600849fbe00fb
:100600000000fa0014c0b3000002fd0054e8b70077
:100610000002fd001404800064026200e00f52003a
:10062000060032008240a9000042eb000002fd00fb
:1006300052e8b7000002fd00050037008240a80024
:1006400014c0b3000002fd0052e8b7000002fd0034
:100650004485200014427800e04f520053003200dd
:100660000042eb000002fd0054e8b7000002fd006c
:10067000e485200014427800e04f52004b00320025
:1006800064852000144278000404a200e04f520068
:10069000460032005485200014427800e04f52009a
:1006a0002200320024852000144278008482fb005e
:1006b00034852000144278000404a2000482fb0068
:1006c00004826200e00f52000700320014c0b30041
:1006d0000002fd0053e8b7000002fd00d501a900ab
:1006e000d541a8003100370024852000144278004d
:1006f0000404a2008482fb003485200014427800a8
:100700000482fb0004826200e00f520027003200e6
:100710000042eb000002fd0053e8b7000002fd00bc
:10072000d501a800d541a90020003700248520006c
:10073000144278008482fb00348520001442780043
:100740000404a2000482fb0004826200e00f520055
:100750000700320014c0b3000002fd0053e8b700e8
:100760000002fd00d501a800d541a9000f00370007
:1007700024852000144278000404a2008482fb0037
:1007800034852000144278000482fb000482620059
:10079000e00f5200050032000042eb000400780038
:1007a00053e8b700d501a900d541a80086e0a9000b
:1007b0000080fa004f02be00004006000000fa0070
:1007c0008020a9000080fa00004006000000fa0026
:1007d0008060a9000080fa00004006000000fa00d6
:1007e0008040a9000080fa00004006000000fa00e6
:1007f0008080a9000080fa00004006000000fa0096
:100800008020a9000080fa00004006000000fa00e5
:100810008060a9000080fa00004006000000fa0095
:100820008040a9000080fa00004006000000fa00a5
:100830008080a9000080fa0000400600841f780034
:100840000000fa000002eb00043a88000080fa0081
:100850004f0278000040060003f0a200889fbe000f
:100860008a9fbe008c1f7800180107001f0133000b
:100870006450e1004f0032006420e1005200320079
:1008800003826c0007003b000905d0000306d0007e
:10089000820f54000c065d00020039000200320095
:1008a00089017800030678008582550004003d0028
:1008b0000003fd008103fd008502ea008b854200f4
:1008c000840f720002003b0060001000e0801800fe
:1008d0006011b8000005eb007a28e1000a00390039
:1008e00006007800c75ddd00f707b200878075005d
:1008f0002d003700828171000a01780061056000d7
:100900008180d1000080d3008502e900f9ff3b001f
:10091000060440008784480002003b006004140085
:10092000e0841c000988a300070032008a8171005e
:1009300082817100610164008904d1000884d300c0
:100940008b05e800170037000978a30013003a0070
:100950000b00e000130034008b05e900080444009c
:1009600089844c000a4474000978a3000d003a0001
:100970000b00e000070034008b05e9000804440088
:1009800089844c0001003a000b0020000978a30084
:10099000f7ff32000001eb00020037008281710096
:1009a0000a0178008e0007000cf0a70001f0a000fb
:1009b000d70037006420e10002003a00838f6c000a
:1009c000d70033000801be000200be00d00037008f
:1009d000889fbe008a9fbe008c1f7800bb00070066
:1009e000c200330003866c006450e1002e00320028
:1009f0006420e100330032006150e1002f0032003a
:100a00006120e1003100320085855500eb07b00020
:100a100009002000080420000500370008044400f5
:100a200089844c000a0031000603430087834b0091
:100a30000001530081815b00f8ff33000203be0018
:100a40000800a0000804440089844c00f6ff390027
:100a5000c639dd008301730001003200130020005d
:100a60008904d1000884d3000998a300050032004e
:100a70000800a7000300a0008904d1000884d30067
:100a80008b05e8008904d1000884d3000001eb0045
:100a90000281d2005200070001f0a1000cf0a70073
:100aa00001f0a0009a0037006420e1009c003200b1
:100ab0000801be000200be00f7ff37006120e10020
:100ac000970032006000b800f3ff370000002000fc
:100ad00001f82700f0ff370014002000e90037007c
:100ae000f4ff2f00e70037000001be00620007009e
:100af0000470a70003f0a1006509b10016003200e0
:100b00000d0035006828e10006003500f0ff2f00d9
:100b1000f1ff27000300e00013003b000100280064
:100b20000000050000004000818048008502e900c7
:100b3000fcff3a0008003700f88f420002003c003a
:100b40008000eb00000005008100d1000080d30090
:100b50008502e800fcff3a000300e00002003b00d1
:100b600060001000e0801800000006000001be00d8
:100b7000410007000470a70003f0a10003f8a300e0
:100b800013003a006509b100100032000900350079
:100b90006928e1000200350001002800000005007e
:100ba00000004000818048008502e900fcff3a0017
:100bb00000000600f88f4200050035008100d100da
:100bc0000080d3008502e800fcff3a000000060028
:100bd0008000eb00000005006011b800c400370081
:100be00081002000618055000b003d000b002000bb
:100bf00061fe2f000100e1001d00340082817100c0
:100c0000610164008904d1000884d3000000e80079
:100c1000faff3a00710020006100640003007000d8
:100c2000020060000900320061044400e0844c00ce
:100c30000988a500050032008b05e8006808e1007e
:100c400002003a008904d1000884d300f20f20008a
:100c50000258e10005003d00c75ddd00f907b20064
:100c60008980750008007800000006000bf8270056
:100c70008b00780000000500c70ade00f107b20013
:100c8000f50fb20008003200e1cf4200020032004e
:100c90000170a00024000500810f700001003200e7
:100ca0000408050044000500810f700002003a00ae
:100cb000140005008502e9000000400081c04800e2
:100cc000fcff3b000170a000240005000004be00f2
:100cd000e9ff07000003be000405be000200be00dd
:100ce000e5ff0700844f7500000006000200be000b
:100cf0006450e100050036006420e1000200360087
:100d00000968a30001003a000800be000160a000cd
:100d10004f0678004f05be004f04be0000000600dd
:100d2000f0ff2f00f1ff2700f9ff3700811f780047
:100d30000100e00002003d0060001000e0801800ab
:100d40000300e00002003d0060011100e081190095
:100d5000490007004f00e00002003b006000100067
:100d6000e080180000000600889fbe008a9fbe0039
:100d70008c1f7800d5ff0700dcff330003866c0072
:100d80006450e100240032006420e10027003200ba
:100d90006150e100220032006120e10021003200b8
:100da0008b854200eb07b1000134b800003ab8006f
:100db0000804420089844a00013ab8000030b800b3
:100dc0008880400009014a00040033000000400010
:100dd00081804800020149008b05e900c909dd0056
:100de000830170000100320013002000c814de00ef
:100df0004814dd004709de001200b200c808de001a
:100e00000884700076ff070001f0a1000cf0a70035
:100e100001f0a000beff37006120e100c0ff3200fa
:100e20000801be000200be00f7ff37006150e1007c
:100e3000fcff3a00baff37006022b800060220002b
:100e40000000d0008180d2000482d2008582d200ce
:100e50000000a0000202520083825a000300310009
:100e60000202420083824a000000a1000603e9005a
:100e7000f3ff3a0000000600efff07000400be0089
:100e800000000600889fbe008a9fbe00841f780075
:100e90008eff07004f00780011003300f0ff2f0095
:100ea000838f6c0006003b00040565000a00a70064
:100eb0000800370009f0a6001000200008003700e5
:100ec000820f5400838f5c00030039001000200063
:100ed00001003e000000200009f0a7000000ea0029
:100ee0004f05be004f04be000000e00000000600f9
:100ef000889fbe008a9fbe000082700004027100bd
:100f000004827100260032000004be000200be0010
:100f10006011b8006b092000950220000182cf000b
:100f20000a0039000541b1000082cf0007003900f6
:100f30000541b1000982cf00040039000541b1002c
:100f40000882cf00010039000541b100054252007e
:100f5000120032000a003b008281710061016400ce
:100f60008100d1000080d3008984d3000884d3009d
:100f70008b05e8000442e800f7ff3a00070037005d
:100f80000804440089844c00000048008180480027
:100f90008b05e9000442e900f9ff3a0010ff070061
:0c0fa0004f05be004f04be00000006001c
:020000040000fa
:100fac004f7500007470000075740000205600002e
:100fbc006f6c000074610000676500002000000089
:100fcc002056000000000000486500006c6c00001a
:040fdc006f000000a2
:020000040000fa
:100fe0000000fa00f4002000341688000002eb0034
:100ff0006416880024002000941688000410200045
:10100000c41688000002eb00f4168800db02a8007a
:10101000c0a0a800d404800004c0a00004d0a00098
:1010200004e0a000d4048800c4a0a80085e0a900c2
:101030008de0a80021000700320007008e000700a5
:101040009e000700700007009f020700ac00070029
:101050004416800068026200e00f52000a003a0065
:101060004416800068026200e00f52000e003a0051
:1010700014c0b3000002fd005ee8b7000002fd00ee
:10108000c1e1a80008003700441680006802620031
:10109000e00f5200040032000042eb000400780030
:1010a0005ee8b700c1e1a80014c0b30004007800f6
:1010b0005ee8b7000080fa00000006000000fa00b9
:1010c00084ff2f0044158800c40e200004158800fa
:1010d00034002000341588000002eb00541588000d
:1010e0002430200024158800c43020001415880006
:1010f0008560a9008d60a800a1e2a8000080fa0028
:10110000000006000000fa0004448000154480003e
:101110008502d1000482d30004027800240e8800e6
:101120000002eb00b40e88000002eb00c40e880041
:101130000002eb00440e8800640e80000460a100f1
:101140000470a100640e8800650e800004fc2f006e
:1011500004826200f401b300640e8800640e800013
:1011600004e0a10004f0a100640e8800650e800078
:10117000f40f2c008482620004f0210004827200cb
:10118000640e8800040e80000420a1000430a10039
:10119000040e8800040e80000400a1000410a000ca
:1011a000040e880024f02000540e8800c801a80016
:1011b000c881a800c821a800c8a1a800c841a900ea
:1011c000c8c1a9004405800004c0a00004d0a0004c
:1011d00004e0a000440588008960a9009160a8008f
:1011e000f4002000840e8800d501a900d541a90093
:1011f000d401a800d421a900d441a800d461a90039
:101200000080fa00000006000000fa00340a8000a6
:101210000400a1000410a1000420a100340a8800e9
:1012200046e1a90047a1a9004681a9004661a9009d
:10123000340a80000450a1000460a100340a880030
:10124000340a80000400a0000410a1000420a100c2
:10125000340a8800b40480000400a1000410a00037
:101260000420a000b40488008480a9008c80a80019
:101270000080fa00000006000000fa000002eb0007
:10128000240888000002eb0004088800244d200098
:1012900014088800a404800004c0a00004d0a100a9
:1012a00004e0a100a40488008460a9008c60a80068
:1012b00005e1a8000080fa00000006000000fa0026
:1012c00004032000940888000002eb005408880002
:1012d0000082eb0074088800b404800004c0a00001
:1012e00004d0a10004e0a100b404880084e0a900b7
:1012f0008ce0a80013e1a8000080fa0000000600be
:101300000000fa00c882a8000042eb000002fd00c5
:101310005de8b7000002fd0000000000d485200059
:10132000144278000404a200e04f5200fbff3a0090
:10133000c8a2a8000042eb000002fd005de8b70073
:101340000002fd0000000000d48520001442780057
:101350000404a200e04f5200fbff3a000042eb0001
:101360000002fd005de8b7000002fd000000000083
:10137000d4852000144278000404a200e04f5200fb
:10138000fbff3a00d402a8000042eb000002fd007f
:101390005de8b7000002fd0000000000d4852000d9
:1013a000144278000404a200e04f5200fbff3a0010
:1013b000c882a900c8a2a900d402a9000080fa002e
:1013c000000006000000fa00889fbe008a1f780017
:1013d000d485200014427800e04f5200060032000d
:1013e0000042eb00040078005de8b70020c0b300c5
:1013f0003203070080020700e485200014427800d1
:10140000e04f520007013200d485200014427800da
:101410000404a200e04f5200f600320014428000a3
:1014200025428000c72bde00c928dd004723de00ef
:1014300006837000740c200005002000840f530008
:10144000858f5b00b3003600144280002542800087
:10145000c72bde00c928dd004723de0006837000ad
:101460000423200005002000840f5300858f5b00bb
:10147000a8003e001442800025428000c72bde00f9
:10148000c928dd004723de0006837000e41b20002e
:1014900005002000840f5300858f5b0056003e003e
:1014a0001442800025428000c72bde00c928dd00e1
:1014b0004723de0006837000740c20000500200026
:1014c000840f5300858f5b004b00360094418000f1
:1014d0000402e9009441880094418000e00f52002a
:1014e00043003a0014002000944188009401200039
:1014f0008441880094012000a441880094012000c8
:10150000b4418800c882a900c8a2a800d402a900da
:1015100024802000144278000404a200e04f52000e
:1015200027003200240e8000040242000500200043
:101530000400be00a8fd07000002be006011b80054
:101540000400be0008fe07000002be000400be004a
:1015500086fd07000002be0004027800b40e880079
:10156000240e800004024200050020000400be009a
:1015700099fd07000002be006011b8000400be0023
:10158000f9fd07000002be000400be0077fd070061
:101590000002be0004027800c40e88006022b80079
:1015a00064418800754188006022b800a44088002a
:1015b000b54088006022b8008440880095408800cb
:1015c00014c0b3000002fd0002e8b7000002fd00f5
:1015d0000042eb000002fd0056e8b7000002fd00eb
:1015e00014c0b3000002fd0055e8b7000002fd0082
:1015f000000000007f003700144280002542800078
:10160000c72bde00c928dd004723de0006837000fb
:10161000541d200005002000840f5300858f5b00bf
:101620006f0036001442800025428000c72bde0088
:10163000c928dd004723de00068370000423200054
:1016400005002000840f5300858f5b0066003e007c
:10165000a44180000402e900a4418800a441800064
:10166000e00f520062003a0014002000a4418800fc
:101670009401200084418800940120009441880056
:1016800094012000b4418800c882a800c8a2a90023
:10169000d402a9002480200014427800e04f5200b8
:1016a0000f003200240e80000002eb00b40e880010
:1016b000240e80000002eb00c40e88006022b800f7
:1016c00064418800754188006022b800a440880009
:1016d000b54088006022b8008440880095408800aa
:1016e0000042eb000002fd0002e8b7000002fd002e
:1016f0000042eb000002fd0056e8b7000002fd00ca
:101700000042eb000002fd0055e8b7000002fd00ba
:10171000380037001442800025428000c72bde00cd
:10172000c928dd004723de0006837000840c2000fa
:1017300005002000840f5300858f5b000b003600ee
:101740001442800025428000c72bde00c928dd003e
:101750004723de0006837000f422200005002000ed
:10176000840f5300858f5b0022003600b441800057
:101770000402e900b4418800b4418000e00f520047
:101780001c003a0014002000b4418800940120009d
:101790009441880094012000a44188009401200015
:1017a00084418800c8a2a800c882a800d402a8006a
:1017b0006022b800a4408800b54088006022b800cc
:1017c00084408800954088006022b8006441880009
:1017d00075418800d501a900d541a900b6003700a0
:1017e0000000000003003700000000000100370087
:1017f000000000001442800025428000c72bde005c
:10180000c928dd004723de0006837000740c200029
:1018100005002000840f5300858f5b0010003e0000
:10182000a5003700d402a900c882a900c8a2a90057
:10183000d501a900d541a9006022b800a4408800c4
:10184000b54088006022b800844088009540880038
:101850006022b80064418800754188009600370016
:101860001442800025428000c72bde00c928dd001d
:101870004723de00068370000423200005002000bb
:10188000840f5300858f5b008b003e00a200070091
:101890002480200014427800e04f52002b003200d8
:1018a000644180007541800018c0b3006011b80029
:1018b0000400be0088fc070000027800e00f520020
:1018c000010034000044eb00e04f540009003200f6
:1018d0006022b80064418800754188006022b80029
:1018e00084408800954088006022b800a4408800a9
:1018f000b5408800644180007541800002002000ee
:1019000003fc23000400be0031fc07000002be00ff
:101910000400be0074fc07000002be000402780050
:10192000c4418800240e8000040242008402780032
:10193000c4418000848f520030003e00240e80009d
:1019400004024200c44188002c003700644180003a
:101950007541800018c0b3006011b8000400be00db
:101960005ffc070000027800e00f520001003d001c
:101970000044eb00e04f54000d003200240e8000c4
:10198000050020000400be0093fc07000002be001a
:101990000200200003fc23000400be00f2fc07004c
:1019a0000002be0005f0a200644188007541880075
:1019b000644180007541800005f0a2000200200013
:1019c00003fc23000400be0001fc07000002be006f
:1019d0000400be0044fc07000002be0004027800c0
:1019e000c4418800c5418000240e8000848f5200cd
:1019f00002003900240e8000c4418800c4418000e8
:101a0000050020000400be0073fc07000004be00b7
:101a1000240e800004024200050020000400be00e5
:101a20006dfc07000002be006011b8000400be009b
:101a3000cdfc07000002be001ac0b3000401be00c6
:101a40000800be0024fc070000027800e00f5200ee
:101a5000010034000045eb00e04f55000f0032005c
:101a6000240e800004024200050020000400be0095
:101a700059fc07000002be006011b8000400be005f
:101a8000b9fc07000002be000400be0037fc0700de
:101a90000002be0004027800c4418800c4418000f6
:101aa000b40e8800c4418000c40e88000042eb00e0
:101ab000040078005ce8b7004f0578004f04be00d2
:101ac0000080fa00000006000000fa008240a90031
:101ad00086e0a900f404800004c0a00004d0a000a7
:101ae00004e0a000f40488008ee0a8000080fa0062
:101af000000006000000fa00050e80000400280027
:101b000004826200e00f520001003200c1e1a8002f
:101b10000080fa00000006000000fa00881f78002c
:101b20003442800045428000492bdd004722de0020
:101b300004027300c72ade000400be0026fc070072
:101b40000002be00244088003540880066408000c6
:101b50007740800024408000354080000401be00b2
:101b60000600be003cfb07000002be00e443880004
:101b7000f5438800e4438000f54380000400be0084
:101b8000d9fb07000002be008402780014c02f00b9
:101b9000848f520014003500e4438000f543800038
:101ba0000400be00d0fb07000002be0084027800e3
:101bb000f43f2000848f52000b003c0086408000e0
:101bc00097408000e4438000f54380000401be009c
:101bd0000600be0021fb07000002be008440880012
:101be00095408800030037006022b80084408800d8
:101bf00095408800e6438000f74380000441800060
:101c0000154180000401be000600be0056fc07001e
:101c10000002be00a4408800b540880086408000d5
:101c20009740800024418000354180000401be00bf
:101c30000600be004cfc07000002be00c440880045
:101c4000d5408800a6408000b7408000c440800096
:101c5000d54080000401be000600be00fffa070068
:101c60000002be0064418800754188006441800024
:101c70007541800018c0b3006011b8000400be00b8
:101c800095fb070000027800e00f520001003400cd
:101c90000044eb00e04f540002003200d402a800e0
:101ca00001003700d402a900240e80000402420083
:101cb000050020000400be00c7fb07000002be00b4
:101cc0000200200003fc23000400be0026fc0700e5
:101cd0000002be000403be00644180007541800024
:101ce00018c0b3000401be000600be007afb070066
:101cf00000027800e00f5200010034000044eb00c5
:101d0000e04f54000e003200240e80000402420016
:101d1000050020000400be00affb07000002be006b
:101d20000200200003fc23000400be000efc07009c
:101d30000002be006441880075418800270037001a
:101d4000240e800004024200050020000400be00b2
:101d5000a1fb07000002be000200200003fc2300dc
:101d60000400be0000fc07000002be000403be0029
:101d700007f0a200644180007541800018c0b300e4
:101d80000401be000600be0055fb070000027800fb
:101d9000e00f520001003d000044eb00e04f540012
:101da0000e003200240e80000402420005002000d4
:101db0000400be0088fb07000002be0002002000f5
:101dc00003fc23000400be00e7fb07000002be0086
:101dd00005f0a2006441880075418800e44380005a
:101de000f543800044408800554088004f04780047
:101df0000080fa00000006000c00fa000042eb0030
:101e0000244f98001443800005002000048fbe007a
:101e10001e02be00a2002000030020000400be003d
:101e2000c2fb07000002be00044278000443b00079
:101e3000144f98001e02be00a200200003002000e4
:101e40000400be00fcfb07000002be00048fbe00c1
:101e50001e02be00a2002000030020000400be00fd
:101e6000b2fb07000002be00044278000443b00049
:101e7000044f98001e02be00a200200003002000b4
:101e80000400be00ecfb07000002be00048fbe0091
:101e90001e02be00a2002000030020000400be00bd
:101ea000a2fb07000002be00044278000443b00019
:101eb000744798001e02be00a2002000030020000c
:101ec0000400be00dcfb07000002be00048fbe0061
:101ed0001e02be00a2002000030020000400be007d
:101ee00092fb07000002be00044278000443b000e9
:101ef000644798001e02be00a200200003002000dc
:101f00000400be00ccfb07000002be00048fbe0030
:101f10001e02be00a2002000030020000400be003c
:101f200082fb07000002be00044278000443b000b8
:101f3000544798001e02be00a200200003002000ab
:101f40000400be00bcfb07000002be00048fbe0000
:101f50001e02be00a2002000030020000400be00fc
:101f600072fb07000002be00044278000443b00088
:101f70004447980020c0b3005000070000c8b300d9
:101f80004e000700607d2800cc00070000ccb300a5
:101f90004a0007006402470004007800c7000700f9
:101fa000607e2800c50007000080fa0000000600df
:101fb0000600fa00200798000002eb00040f7800ea
:101fc0000002eb00140798000002eb0014079800d1
:101fd0000b0037000002eb00040f7800010037000f
:101fe0001e0fe8002e0290009e027800848f52009f
:101ff000fbff39001e0290000402e800140798005d
:102000009e0290002e029000848f5200f1ff390052
:102010000080fa00000006000000fa00dca2a9001f
:10202000dc82a900d1c2a900d1a2a900c882a8005f
:1020300020032000deff070020032000dcff070054
:1020400020032000daff070020032000d8ff07004c
:1020500020032000d6ff070020032000d4ff070044
:1020600020032000d2ff070020032000d0ff07003c
:10207000c882a90080c3b30010000700200320001d
:10208000cbff0700c0c0b3000c00070020032000f6
:10209000c7ff070010c0b30008000700200320009e
:1020a000c3ff070060c0b300040007002003200046
:1020b000bfff07000080fa00000006000200fa00df
:1020c000004f7800dca2a9009e4278000582fb0048
:1020d0004322de00044278006142620061426200f5
:1020e000614262000482fb00610262004422dd0062
:1020f000e6168000f5fe2f00850263000482720060
:10210000e416880020032000a9ff0700dca2a80035
:1021100020032000a6ff070074002000244488004c
:102120001c00370024448000e30f520016003200e8
:10213000dca2a9001e4278008482fb0024448000b7
:1021400004aade000442780061426200614262003b
:10215000614262000482fb00610262004422dd00f1
:10216000e6168000f5fe2f008502630004827200ef
:10217000e4168800200320008dff0700dca2a800e1
:10218000200320008aff0700244480000402e900a5
:102190002444880024448000e00f5200e1ff3d0009
:1021a000d1c2a900d1a2a8002003200080ff07000f
:1021b000d1a2a9000080fa00000006000200fa0087
:1021c000004f7800dca2a9009e4278000582fb0047
:1021d0004322de00044278006142620061426200f4
:1021e000614262000482fb00610262004422dd0061
:1021f000e6168000f5fe2f0085026300048272005f
:10220000e41688002003200069ff0700dca2a80074
:102210002003200066ff070074002000244488008b
:102220001c00370024448000e30f520016003200e7
:10223000dca2a9001e4278008482fb0024448000b6
:1022400004aade000442780061426200614262003a
:10225000614262000482fb00610262004422dd00f0
:10226000e6168000f5fe2f008502630004827200ee
:10227000e4168800200320004dff0700dca2a80020
:10228000200320004aff0700244480000402e900e4
:102290002444880024448000e00f5200e1ff3d0008
:1022a000d1c2a800d1a2a8002003200040ff07004f
:1022b000d1a2a9000080fa00000006000400fa0084
:1022c000100798000002eb00040f780006003700aa
:1022d0001e0290001e024200144278000440780062
:1022e000b6ff07001e0fe8001e0290001e0242000b
:1022f00014427800e04f5200f5ff3a000080fa00e7
:0423000000000600d3
:020000040000fa
:102304003a0800002a00000002000000000000005b
:1023140000000000000000000000000000000000b9
:1023240000000000000000000000000000000000a9
:102334000000000000000000000000000000000099
:102344000000000064080000140000000000000009
:10235400800800000400000002000000a902000040
:1023640000000000780800000800000000000000e1
:10237400000800003a000000020000000000000015
:102384000000000000000000000000000000e10068
:1023940043000000000000000000000000000000f6
:1023a400000000000000cd00cc4c3d00cdcc4c0022
:1023b4003d000000000000000000000019001900aa
:1023c400001900001900000000000000840800004b
:1023d40002000000020000000000000000000000f5
:020000040000fa
:1023e4000000fa0006000700fcfa070009ff0700d6
:1023f400a07e2800b0ff0700f1fb0700feff3700b6
:0c2404000000fa000080fa000000060052
:020000040000fa
:0200000401f009
:04000000f63f0000c7
:020000040000fa
:0200000401f009
:04000400ff7f00007a
:020000040000fa
:0200000401f009
:04000800cefb00002b
:020000040000fa
:0200000401f009
:04001400ffff0000ea
:00000001FF
