:020000040000fa
:080000000001040000000000f3
:020000040000fa
:100008001c040000ec030000f2030000f8030000e9
:10001800fe0300001c0400001c0400001c04000077
:100028001c0400001c0400001c0400007e020000e8
:10003800cc0200001c0400001c040000c4020000e4
:100048001c0400001c0400001c04000094010000b3
:100058001c0400001c0400001c04000042020000f4
:100068001c0400001c0400001c0400001c04000008
:100078001c0400001c0400001c0400000c03000009
:100088001c0400001c0400001c0400001c040000e8
:100098001c0400001c0400001c0400001c040000d8
:1000a8001c0400001c0400001c0400001c040000c8
:1000b8001c0400001c0400001c0400001c040000b8
:1000c8001c0400001c0400001c0400001c040000a8
:1000d8001c0400001c0400001c0400001c04000098
:1000e8001c0400001c0400001c0400001c04000088
:0800f8001c0400001c040000c0
:020000040000fa
:100108001c040000040400000a040000100400009d
:10011800160400001c0400001c0400001c0400005d
:100128001c0400001c0400001c0400007e020000e7
:10013800cc0200001c0400001c040000c4020000e3
:100148001c0400001c0400001c04000094010000b2
:100158001c0400001c0400001c04000042020000f3
:100168001c0400001c0400001c0400001c04000007
:100178001c0400001c0400001c0400000c03000008
:100188001c0400001c0400001c0400001c040000e7
:100198001c0400001c0400001c0400001c040000d7
:1001a8001c0400001c0400001c0400001c040000c7
:1001b8001c0400001c0400001c0400001c040000b7
:1001c8001c0400001c0400001c0400001c040000a7
:1001d8001c0400001c0400001c0400001c04000097
:1001e8001c0400001c0400001c0400001c04000087
:0801f8001c0400001c040000bf
:020000040000fa
:100200008f9620000e9f20000e0188000000000045
:1002100000012000200288000c00070000e92000f7
:100220000100200011000700000020000000e00095
:10023000020032000000020000000000f00e020088
:10024000000000000040da000000fe004440a90069
:10025000000020000000e000030032000000200049
:10026000a00188004440a800000006009101880019
:10027000800078000000eb0015003700e2804000ad
:1002800032a0b4009101ba00e280400032a0b40074
:100290009102ba00e280400032a0b4000002eb00fc
:1002a000472bde00f507b200602ce10004003a00a5
:1002b0000059eb008301e900fdff3e000400370018
:1002c0006128e100010032000082eb000400070019
:1002d0001101ba000200e000e8ff3a000000060049
:1002e0003159ba008301e9000c0032002159ba00eb
:1002f0008301e900080032000400e00003003a0036
:10030000e280400032a0b400f5ff370011d9ba00f6
:100310008301e900faff3a008100e800e180400033
:1003200032a0b40000000600849fbe00869fbe007d
:100330000000fa00f6498000074a8000f449800076
:10034000054a8000402ade00050020000403530017
:1003500085835b0014148000050020000602420023
:1003600087824a00f4498800054a8800164a8000be
:10037000274a8000144a8000254a8000402ade0077
:10038000050020000403530085835b0024148000d3
:10039000050020000602420087824a00144a8800b5
:1003a000254a8800364a8000474a8000344a800047
:1003b000454a8000402ade00050020000403530067
:1003c00085835b0034148000050020000602420093
:1003d00087824a00344a8800454a8800664a80007d
:1003e000f4498000054a8000402ade000500200014
:1003f000c233dd00068a200006834300048bbe0062
:10040000664a8000144a8000254a8000402ade00a7
:1004100005002000c233dd00068020000683430073
:10042000048bbe00664a8000344a8000454a800042
:10043000402ade0005002000c233dd0006852000d2
:1004400006834300048bbe00644a80000402e80077
:10045000644a8800644a8000f30f520002003600ac
:100460000002eb00644a880004148000c44988003c
:100470008560a9000080fa004f03be004f02be0055
:1004800000400600841f78000000fa004416800037
:1004900068026200e00f52000b003a004416800030
:1004a00068026200e00f520010003a0014c0b3006e
:1004b0000002fd005ae9b7000002fd00cfc2a9000a
:1004c000c1e1a800090037004416800068026200fc
:1004d000e00f5200050032000042eb0004007800fb
:1004e0005ae9b700cfc2a800c1e1a80085e0a90081
:1004f0000080fa004f02780000400600849fbe0092
:100500000000fa00b44a80000402e800b44a8800ff
:10051000b54a800044062000848f52001600360041
:100520000002eb00b44a880014c0b3000002fd00d2
:1005300058e9b7000002fd00a44a80000402e80068
:10054000a44a8800a54a800044062000848f5200f7
:1005500009003600a54a800024032000848f520041
:10056000050036000002eb00a44a880014c0b30066
:100570000400780059e9b7008460a9000080fa00ff
:100580004f02be00004006000000fa0084e0a9000f
:100590000080fa0000400600849fbe00861f78009d
:1005a0000400fa00240a8000040f7800240a800066
:1005b000140798008480a9001e0290009e0f52002c
:1005c00008003600544a80009e0290009e8252002d
:1005d00004034200048f200004024300050a78004f
:1005e00009003700544a8000750880001e835200bd
:1005f0009e0290008502430004034200048f200005
:1006000004024300050a78000080fa004f037800d6
:100610004f02be0000400600849fbe000000fa00aa
:1006200014c0b3000002fd0050e9b7000002fd0055
:100630001404800064026200e00f520006003200e1
:100640008240a9000042eb000002fd004ee9b70025
:100650000002fd00050037008240a80014c0b3006e
:100660000002fd004ee9b7000002fd0004952000e5
:1006700014427800e04f5200530032000042eb0079
:100680000002fd0050e9b7000002fd00a495200023
:1006900014427800e04f52004b00320024952000b5
:1006a000144278000404a200e04f520046003200d9
:1006b0001495200014427800e04f520022003200ce
:1006c000e4942000144278008482fb00f49420001b
:1006d000144278000404a2000482fb000482620039
:1006e000e00f52000700320014c0b3000002fd000a
:1006f0004fe9b7000002fd00d501a900d541a800cf
:1007000031003700e4942000144278000404a20071
:100710008482fb00f4942000144278000482fb00e1
:1007200004826200e00f5200270032000042eb001a
:100730000002fd004fe9b7000002fd00d501a8004e
:10074000d541a90020003700e4942000144278002d
:100750008482fb00f4942000144278000404a20078
:100760000482fb0004826200e00f520007003200a6
:1007700014c0b3000002fd004fe9b7000002fd0005
:10078000d501a800d541a9000f003700e49420004e
:10079000144278000404a2008482fb00f494200038
:1007a000144278000482fb0004826200e00f5200d1
:1007b000050032000042eb00040078004fe9b7006a
:1007c000d501a900d541a80086e0a9000080fa0063
:1007d0004f02be00004006000000fa008020a90081
:1007e000ffff37000000fa008060a900ffff37001c
:1007f0000000fa008040a900ffff37000000fa0067
:100800008080a900ffff37000000fa008020a900c7
:10081000ffff37000000fa008060a900ffff3700eb
:100820000000fa008040a900ffff37000000fa0036
:100830008080a900ffff37000000fa00ffff3700ab
:1008400003f0a200889fbe008a9fbe008c1f780024
:10085000180107001f0133006450e1004f0032000f
:100860006420e1005200320003826c0007003b006c
:100870000905d0000306d000820f54000c065d006d
:100880000200390002003200890178000306780076
:100890008582550004003d000003fd008103fd003a
:1008a0008502ea008b854200840f720002003b0043
:1008b00060001000e08018006011b8000005eb0037
:1008c0007a28e1000a00390006007800c75ddd00e3
:1008d000f707b200878075002d0037008281710014
:1008e0000a017800610560008180d1000080d3009a
:1008f0008502e900f9ff3b000604400087844800b8
:1009000002003b0060041400e0841c000988a3007e
:10091000070032008a8171008281710061016400e8
:100920008904d1000884d3008b05e8001700370044
:100930000978a30013003a000b00e0001300340014
:100940008b05e9000804440089844c000a447400c3
:100950000978a3000d003a000b00e0000700340006
:100960008b05e9000804440089844c0001003a002a
:100970000b0020000978a300f7ff32000001eb0014
:1009800002003700828171000a0178008e000700a2
:100990000cf0a70001f0a000d70037006420e100b0
:1009a00002003a00838f6c00d70033000801be00bc
:1009b0000200be00d0003700889fbe008a9fbe00a4
:1009c0008c1f7800bb000700c200330003866c0058
:1009d0006450e1002e0032006420e1003300320058
:1009e0006150e1002f0032006120e100310032004f
:1009f00085855500eb07b0000900200008042000a1
:100a0000050037000804440089844c000a003100c6
:100a10000603430087834b000001530081815b0084
:100a2000f8ff33000203be000800a00008044400e1
:100a300089844c00f6ff3900c639dd00830173005c
:100a400001003200130020008904d1000884d30083
:100a50000998a300050032000800a7000300a000c9
:100a60008904d1000884d3008b05e8008904d100f3
:100a70000884d3000001eb000281d200520007007d
:100a800001f0a1000cf0a70001f0a0009a003700cf
:100a90006420e1009c0032000801be000200be009c
:100aa000f7ff37006120e100970032006000b800d6
:100ab000f3ff37000000200001f82700f0ff3700a7
:100ac00014002000c7003700f4ff2f00c5003700d6
:100ad0000001be00620007000470a70003f0a1003f
:100ae0006509b100160032000d0035006828e100ec
:100af00006003500f0ff2f00f1ff27000300e000a3
:100b000013003b0001002800000005000000400029
:100b1000818048008502e900fcff3a0008003700a8
:100b2000f88f420002003c008000eb00000005004e
:100b30008100d1000080d3008502e800fcff3a006c
:100b40000300e00002003b0060001000e08018009d
:100b5000000006000001be00410007000470a7006d
:100b600003f0a10003f8a30013003a006509b100e7
:100b700010003200090035006928e100020035004c
:100b800001002800000005000000400081804800ae
:100b90008502e900fcff3a0000000600f88f4200e1
:100ba000050035008100d1000080d3008502e800f7
:100bb000fcff3a00000006008000eb00000005008a
:100bc0006011b800a200370081002000618055004c
:100bd0000b003d000b00200061fe2f000100e10032
:100be0001d00340082817100610164008904d1001c
:100bf0000884d3000000e800faff3a0071002000ea
:100c0000610064000300700002006000090032000f
:100c100061044400e0844c000988a500050032000e
:100c20008b05e8006808e10002003a008904d10061
:100c30000884d300f20f20000258e10005003d00b7
:100c4000c75ddd00f907b2008980750008007800f3
:100c5000000006000bf827008b007800000005005c
:100c6000c70ade00f107b200f50fb200080032003b
:100c7000e1cf4200020032000170a0002400050014
:100c8000810f7000010032000408050044000500d7
:100c9000810f700002003a00140005008502e9008f
:100ca0000000400081c04800fcff3b000170a00034
:100cb000240005000004be00e9ff07000003be0099
:100cc0000405be000200be00e5ff0700844f75006a
:100cd000000006000200be006450e100050036007e
:100ce0006420e100020036000968a30001003a0018
:100cf0000800be000160a0004f0678004f05be004e
:100d00004f04be0000000600f0ff2f00f1ff270097
:100d1000f9ff3700889fbe008a9fbe008c1f7800b5
:100d2000e4ff0700ebff330003866c006450e10032
:100d3000240032006420e100270032006150e1000d
:100d4000220032006120e100210032008b85420048
:100d5000eb07b1000134b800003ab80008044200c3
:100d600089844a00013ab8000030b8008880400009
:100d700009014a000400330000004000818048005f
:100d8000020149008b05e900c909dd0083017000fb
:100d90000100320013002000c814de004814dd00fa
:100da0004709de001200b200c808de0008847000a7
:100db00085ff070001f0a1000cf0a70001f0a000e2
:100dc000cdff37006120e100cfff32000801be00f7
:100dd0000200be00f7ff37006150e100fcff3a005f
:100de000c9ff3700889fbe008a9fbe00841f78001d
:100df000b0ff07004f00780011003300f0ff2f0014
:100e0000838f6c0006003b00040565000a00a70004
:100e10000800370009f0a600100020000800370085
:100e2000820f5400838f5c00030039001000200003
:100e300001003e000000200009f0a7000000ea00c9
:100e40004f05be004f04be000000e0000000060099
:100e5000889fbe008a9fbe0000827000040271005d
:100e600004827100260032000004be000200be00b1
:100e70006011b8006b092000950220000182cf00ac
:100e80000a0039000541b1000082cf000700390097
:100e90000541b1000982cf00040039000541b100cd
:100ea0000882cf00010039000541b100054252001f
:100eb000120032000a003b0082817100610164006f
:100ec0008100d1000080d3008984d3000884d3003e
:100ed0008b05e8000442e800f7ff3a0007003700fe
:100ee0000804440089844c000000480081804800c8
:100ef0008b05e9000442e900f9ff3a0032ff0700e0
:0c0f00004f05be004f04be0000000600bc
:020000040000fa
:100f0c000000fa00f4002000341688000002eb0008
:100f1c006416880024002000941688000410200019
:100f2c00c41688000002eb00f4168800c0a0a800cc
:100f3c00d404800004c0a00004d0a00004e0a000f1
:100f4c00d4048800c4a0a80085e0a9008de0a80006
:100f5c002000070031000700820007009200070004
:100f6c0064000700ef020700a00007004416800091
:100f7c0068026200e00f52000b003a004416800039
:100f8c0068026200e00f520010003a0014c0b30077
:100f9c000002fd005ae9b7000002fd00cfc2a90013
:100fac00c1e1a80009003700441680006802620005
:100fbc00e00f5200050032000042eb000400780004
:100fcc005ae9b700cfc2a800c1e1a8000080fa001e
:100fdc00000006000000fa0084ff2f004415880072
:100fec00c40e20000415880034002000341588003d
:100ffc000002eb00541588002430200024158800d2
:10100c00c4302000141588008560a9008d60a800ec
:10101c00a1e2a8000080fa00000006000000fa001f
:10102c00244b8000354b80008502d1000482d30014
:10103c0004027800240e88000002eb00b40e880035
:10104c000002eb00c40e88000002eb00440e880086
:10105c00640e80000460a1000470a100640e88007e
:10106c00650e800004fc2f0004826200f401b300c2
:10107c00640e8800640e800004e0a10004f0a1005e
:10108c00640e8800650e8000f40f2c0084826200d0
:10109c0004f0210004827200640e8800040e8000ab
:1010ac000420a1000430a100040e8800040e80006e
:1010bc000400a1000410a000040e880024f02000fd
:1010cc00540e8800c801a800c881a800c821a80037
:1010dc00c8a1a800c841a900c8c1a900d401a80092
:1010ec00d421a900d441a800d461a9000080fa0041
:1010fc00000006000000fa00340a80000400a10081
:10110c000410a1000420a100340a880046e1a900c3
:10111c0047a1a9004681a9004661a900340a8000b4
:10112c000450a1000460a100340a8800340a800035
:10113c000400a0000410a1000420a100340a8800bf
:10114c00b40480000400a1000410a0000420a0003e
:10115c00b40488008480a9008c80a8000080fa0068
:10116c00000006000000fa000002eb0024088800d2
:10117c000002eb0004088800244d200014088800ad
:10118c00a404800004c0a00004d0a10004e0a100cd
:10119c00a40488008460a9008c60a80005e1a80064
:1011ac000080fa00000006000000fa000403200092
:1011bc00940888000002eb00540888000082eb00c1
:1011cc0074088800b404800004c0a00004d0a100fe
:1011dc0004e0a100b404880084e0a9008ce0a8001d
:1011ec0013e1a8000080fa00000006000000fa00dd
:1011fc00c882a8000042eb000002fd0059e9b700cc
:10120c000002fd00000000009495200014427800bc
:10121c000404a200e04f5200fbff3a00c8a2a80051
:10122c000042eb000002fd0059e9b7000002fd008e
:10123c000000000094952000144278000404a200e1
:10124c00e04f5200fbff3a00cfa2a8000042eb0097
:10125c000002fd0059e9b7000002fd00000000008b
:10126c0094952000144278000404a200e04f520030
:10127c00fbff3a00d402a8000042eb000002fd0084
:10128c0059e9b7000002fd00000000009495200011
:10129c00144278000404a200e04f5200fbff3a0015
:1012ac00c882a900c8a2a900d402a900cfa2a90093
:1012bc000080fa00000006000000fa00889fbe00c3
:1012cc008a1f78009495200014427800e04f520059
:1012dc00110032000042eb000002fd0059e9b7009a
:1012ec000002fd00741680004d22de006142620097
:1012fc0004c2ea00614262000482fb0061026200e7
:10130c004d22dd0076168000f5ff2d00850263006e
:10131c000482720074168800a49520001442780090
:10132c00e04f52001b0132009495200014427800cb
:10133c000404a200e04f52000c013200f44980007a
:10134c00054a8000402bde0007002000740c2000b2
:10135c0005002000840f5300858f5b00cc00360005
:10136c00f4498000054a8000402bde000700200075
:10137c000423200005002000840f5300858f5b00a0
:10138c00c3003e00f4498000054a8000402bde007b
:10139c0007002000841b200005002000840f530050
:1013ac00858f5b0047003e00f4498000054a8000b1
:1013bc00402bde0007002000740c200005002000ec
:1013cc00840f5300858f5b003e003600c882a90055
:1013dc00c8a2a800d402a90064902000144278008e
:1013ec000404a200e04f520029003200240e8000b9
:1013fc0004024200050020000400be00edfd0700c1
:10140c000002be00d2cc2c00c3dc23000400be00c2
:10141c003dfe07000002be000400be00cafd07002e
:10142c000002be0004027800b40e8800240e800076
:10143c0004024200050020000400be00ddfd070090
:10144c000002be00d2cc2c00c3dc23000400be0082
:10145c002dfe07000002be000400be00bafd07000e
:10146c000002be0004027800c40e88006022b8009e
:10147c0084498800954988006022b800c4488800d7
:10148c00d54888006022b800a4488800b548880078
:10149c0014c0b3000002fd0006e9b7000002fd0015
:1014ac000042eb000002fd0052e9b7000002fd0013
:1014bc0014c0b3000002fd0051e9b7000002fd00aa
:1014cc004e003700f4498000054a8000402bde00b6
:1014dc0007002000b41c200005002000840f5300de
:1014ec00858f5b0045003600f4498000054a80007a
:1014fc00402bde0007002000042320000500200004
:10150c00840f5300858f5b003c003e00c882a8000e
:10151c00c8a2a900d402a90064902000144278004b
:10152c00e04f520029003200240e800004024200d9
:10153c00050020000400be009efd07000002be0056
:10154c006266260063f623000400be00eefd070071
:10155c000002be000400be007bfd07000002be00be
:10156c0004027800b40e8800240e800004024200ad
:10157c00050020000400be008efd07000002be0026
:10158c006266260063f623000400be00defd070041
:10159c000002be000400be006bfd07000002be008e
:1015ac0004027800c40e88006022b80084498800c8
:1015bc00954988006022b800c4488800d548880046
:1015cc006022b800a4488800b54888000042eb00af
:1015dc000002fd0006e9b7000002fd000042eb002e
:1015ec000002fd0052e9b7000002fd000042eb00d2
:1015fc000002fd0051e9b7000002fd00f449800033
:10160c00054a8000402bde0007002000741b2000e0
:10161c0005002000840f5300858f5b0053003600bb
:10162c00f4498000054a8000402bde0007002000b2
:10163c00c41c200005002000840f5300858f5b0024
:10164c0049003e006022b800c4488800d548880094
:10165c006022b800a4488800b54888006022b80011
:10166c008449880095498800c882a900c8a2a900ad
:10167c00d402a8000042eb000002fd0052e9b700c2
:10168c000002fd00d501a900d541a90021013700b8
:10169c00f4498000054a8000402bde000700200042
:1016ac00840c200005002000840f5300858f5b0004
:1016bc0009003600f4498000054a8000402bde000a
:1016cc0007002000f422200005002000840f5300a6
:1016dc00858f5b0025003600649020001442780052
:1016ec00e04f52000e003200441680004422de000f
:1016fc006142620004c2ea00614262000482fb00a3
:10170c00610262004422dd0046168000f5fe2f00c7
:10171c008502630004827200441688000d003700b5
:10172c00441680004522de006142620004c2ea00d9
:10173c00614262000482fb00610262004522dd000e
:10174c0046168000f5fd2f008502630004827200ae
:10175c0044168800d402a900cfa2a800d501a90084
:10176c00d541a900eb00370000000000f4498000cf
:10177c00054a8000402bde0007002000740c20007e
:10178c0005002000840f5300858f5b0010003e0085
:10179c00e0003700d402a900c882a900c8a2a900a1
:1017ac00d501a900d541a9006022b800c448880021
:1017bc00d54888006022b800a4488800b548880045
:1017cc006022b8008449880095498800d100370010
:1017dc00f4498000054a8000402bde000700200001
:1017ec000423200005002000840f5300858f5b002c
:1017fc00c8003e008495200014427800e04f52004f
:10180c00c4003200db000700844980009549800049
:10181c000200200003fc23000400be0063fc070050
:10182c000002be000400be00a6fc07000002be00c1
:10183c0004027800b40e8800b40e8000050020006d
:10184c000400be00dbfc07000004be00240e800078
:10185c0004024200050020000400be00d5fc070075
:10186c000002be006266260063f623000400be0080
:10187c0025fd07000002be001ac0b3000401be0023
:10188c000800be008dfc070000027800e00f52003b
:10189c0001003c000045eb00e04f55001000320009
:1018ac00240e800004024200050020000400be004b
:1018bc00c0fc07000002be006266260063f623002f
:1018cc000400be0010fd07000002be000400be00b4
:1018dc009dfc07000002be0004027800b40e8800d4
:1018ec00b40e8000050020000400be00b1fc07000f
:1018fc000004be00240e80000402420005002000fb
:10190c000400be00abfc07000002be00d2cc2c00d1
:10191c00c3dc23000400be00fbfc07000002be0079
:10192c001ac0b3000401be000800be0061fc070031
:10193c0000027800e00f5200010035000045eb007a
:10194c00e04f550010003200240e800004024200cb
:10195c00050020000400be0096fc07000002be003b
:10196c00d2cc2c00c3dc23000400be00e6fc070034
:10197c000002be000400be0073fc07000002be00a3
:10198c0004027800b40e88008449800095498000d8
:10199c000200200003fc23000400be0003fc07002f
:1019ac000002be000400be0046fc07000002be00a0
:1019bc0004027800c40e8800c40e800005002000cc
:1019cc000400be007bfc07000004be00240e800057
:1019dc0004024200050020000400be0075fc070054
:1019ec000002be006266260063f623000400be00ff
:1019fc00c5fc07000002be001ac0b3000401be0003
:101a0c000800be002dfc070000027800e00f520019
:101a1c0001003c000045eb00e04f55001000320087
:101a2c00240e800004024200050020000400be00c9
:101a3c0060fc07000002be006266260063f623000d
:101a4c000400be00b0fc07000002be000400be0093
:101a5c003dfc07000002be0004027800c40e8800a2
:101a6c00c40e8000050020000400be0051fc0700dd
:101a7c000004be00240e8000040242000500200079
:101a8c000400be004bfc07000002be00d2cc2c00b0
:101a9c00c3dc23000400be009bfc07000002be0058
:101aac001ac0b3000401be000800be0001fc070010
:101abc0000027800e00f5200010035000045eb00f9
:101acc00e04f550010003200240e8000040242004a
:101adc00050020000400be0036fc07000002be001a
:101aec00d2cc2c00c3dc23000400be0086fc070013
:101afc000002be000400be0013fc07000002be0082
:101b0c0004027800c40e88000042eb000400780048
:101b1c0058e9b7004f0578004f04be000080fa006a
:101b2c00000006000000fa008240a90086e0a9002f
:101b3c00f404800004c0a00004d0a00004e0a000c5
:101b4c00f40488008ee0a8000080fa000000060073
:101b5c000000fa00050e80000400280004826200d8
:101b6c00e00f520001003200c1e1a8000080fa0031
:101b7c00000006000000fa00881f7800144a80005c
:101b8c00254a8000402ade00050020000400be002b
:101b9c0008fc07000002be00444888005548880035
:101bac006022b80044488800554888008648800068
:101bbc009748800044488000554880000401be00ce
:101bcc000600be001bfb07000002be00044b880091
:101bdc00154b8800044b8000154b80000400be00a0
:101bec00b8fb07000002be008402780014c02f006e
:101bfc00848f520013003500044b8000154b80007d
:101c0c000400be00affb07000002be008402780097
:101c1c00f43f2000848f52000a003c00a64880004c
:101c2c00b7488000044b8000154b80000401be00b7
:101c3c000600be0000fb07000002be00a44888009e
:101c4c00b5488800064b8000174b80002449800063
:101c5c00354980000401be000600be002afc0700c6
:101c6c000002be00c4488800d5488800a648800001
:101c7c00b748800044498000554980000401be00eb
:101c8c000600be0020fc07000002be00e4488800ed
:101c9c00f5488800c6488000d7488000e44880009a
:101cac00f54880000401be000600be00e2fa070001
:101cbc000002be0084498800954988008449800050
:101ccc009549800018c0b3006011b8000400be0034
:101cdc0078fb070000027800e00f5200010035008d
:101cec000044eb00e04f540002003200cfa2a900e8
:101cfc0001003700cfa2a800044b8000154b8000d8
:101d0c0064488800754888004f0478000080fa0009
:041d1c0000000600bd
:020000040000fa
:101d2000360900002600000002000000000000004c
:101d300000000000000000000000000000000000a3
:101d40000000000000000000000000000000000093
:101d50000000000000000000000000000000000083
:101d600000080000040100000000000064090000f9
:101d70000400000002000000a902000000000000b2
:101d80005c090000080000000000000004090000d9
:101d9000320000000200000000000000000000000f
:101da00000000000000000000080ed004300000083
:101db0000000000000000000000000000000000023
:101dc00000000a00d7a33b000ad7a3003b00000095
:101dd0000000000000000000000000000000000003
:020000040000fa
:101de0000000fa000300070048fc070035fd07006b
:101df000feff37000000fa000080fa000000060035
:020000040000fa
:0200000401f009
:04000000f63f0000c7
:020000040000fa
:0200000401f009
:04000400ff7f00007a
:020000040000fa
:0200000401f009
:04000800cffb00002a
:020000040000fa
:0200000401f009
:04001400ffff0000ea
:00000001FF
