:020000040000fa
:080000000001040000000000f3
:020000040000fa
:10000800a8020000780200007e02000084020000be
:100018008a020000a8020000a8020000a80200004e
:10002800a8020000a8020000a8020000a802000020
:10003800b8010000a8020000a8020000b0010000fa
:10004800a8020000a8020000a80200009401000015
:10005800a8020000a8020000a8020000a8020000f0
:10006800a8020000a8020000a8020000a8020000e0
:10007800a8020000a8020000a8020000a8020000d0
:10008800a8020000a8020000a8020000a8020000c0
:10009800a8020000a8020000a8020000a8020000b0
:1000a800a8020000a8020000a8020000a8020000a0
:1000b800a8020000a8020000a8020000a802000090
:1000c800a8020000a8020000a8020000a802000080
:1000d800a8020000a8020000a8020000a802000070
:1000e800a8020000a8020000a8020000a802000060
:0800f800a8020000a8020000ac
:020000040000fa
:10010800a802000090020000960200009c02000075
:10011800a2020000a8020000a8020000a802000035
:10012800a8020000a8020000a8020000a80200001f
:10013800b8010000a8020000a8020000b0010000f9
:10014800a8020000a8020000a80200009401000014
:10015800a8020000a8020000a8020000a8020000ef
:10016800a8020000a8020000a8020000a8020000df
:10017800a8020000a8020000a8020000a8020000cf
:10018800a8020000a8020000a8020000a8020000bf
:10019800a8020000a8020000a8020000a8020000af
:1001a800a8020000a8020000a8020000a80200009f
:1001b800a8020000a8020000a8020000a80200008f
:1001c800a8020000a8020000a8020000a80200007f
:1001d800a8020000a8020000a8020000a80200006f
:1001e800a8020000a8020000a8020000a80200005f
:0801f800a8020000a8020000ab
:020000040000fa
:100200008f8220000e9f20000e0188000000000059
:1002100000012000200288000c0007002060200060
:100220000100200011000700000020000000e00095
:10023000020032000000020000000000260602005a
:10024000000000000040da000000fe004440a90069
:10025000000020000000e000030032000000200049
:10026000a00188004440a800000006009101880019
:10027000800078000000eb0015003700e2804000ad
:1002800032a0b4009101ba00e280400032a0b40074
:100290009102ba00e280400032a0b4000002eb00fc
:1002a000472bde00f507b200602ce10004003a00a5
:1002b0000059eb008301e900fdff3e000400370018
:1002c0006128e100010032000082eb000400070019
:1002d0001101ba000200e000e8ff3a000000060049
:1002e0003159ba008301e9000c0032002159ba00eb
:1002f0008301e900080032000400e00003003a0036
:10030000e280400032a0b400f5ff370011d9ba00f6
:100310008301e900faff3a008100e800e180400033
:1003200032a0b40000000600841f78000000fa002c
:1003300004148000e440880014148000f440880015
:10034000241480000441880034148000d4408800c4
:100350008560a9000080fa004f0278000040060086
:100360000000fa0084e0a9000080fa0000400600c6
:10037000849fbe00861f78000400fa00240a8000d3
:10038000040f7800240a80001407980044168000a7
:100390004522de006142620004c2ea00614262005e
:1003a0000482fb00610262004522dd0046168000e7
:1003b000f5fd2f0085026300048272004416880058
:1003c0008480a9001e0290009e0f52000800360093
:1003d000144180009e0290009e825200040342005d
:1003e0000480200004024300050a78000900370059
:1003f00014418000750880001e8352009e02900008
:1004000085024300040342000480200004024300ec
:10041000050a780014418000840242000480200014
:100420000482420094027800f49f2f00848f5200cf
:100430002300360014418000840242000480200022
:10044000048242009402780004b02f00848f52008e
:100450001b003e00a4168000044278006142620046
:1004600004c2ea00614262000482fb006102620091
:10047000a6168000e5ff2f0085026300048272004b
:10048000a4168800a416800061026200e00f5200ea
:1004900009003200050e800004002800048262007a
:1004a000e00f520001003a00c1e1a800d521a900e7
:1004b000d561a90002003700d521a800d561a800a8
:1004c000144180000402e8001441880014418000b7
:1004d000ea0f5200020036000002eb0014418800cf
:1004e0000080fa004f0378004f02be000040060073
:1004f0000000fa008020a900ffff37000000fa008a
:100500008060a900ffff37000000fa008040a900ca
:10051000ffff37000000fa008080a900ffff3700ce
:100520000000fa008020a900ffff37000000fa0059
:100530008060a900ffff37000000fa008040a9009a
:10054000ffff37000000fa008080a900ffff37009e
:100550000000fa00ffff37000001be001b0007008b
:100560000470a70003f0a10003f8a30013003a00f1
:100570006509b10010003200090035006928e1006a
:1005800002003500010028000000050000004000c6
:10059000818048008502e900fcff3a000000060067
:1005a000f88f4200050035008100d1000080d300a3
:1005b0008502e800fcff3a00000006008000eb0026
:1005c000000005006011b80049003700c70ade00ce
:1005d000f107b200f50fb20008003200e1cf42008f
:1005e000020032000170a00024000500810f70009d
:1005f000010032000408050044000500810f70006e
:1006000002003a00140005008502e90000004000e5
:1006100081c04800fcff3b000170a00024000500e1
:10062000889fbe008a9fbe008c1f7800850007004f
:100630008c00330003866c006450e100240032001b
:100640006420e100270032006150e1002200320006
:100650006120e100210032008b854200eb07b100f0
:100660000134b800003ab8000804420089844a0006
:10067000013ab8000030b8008880400009014a0003
:10068000040033000000400081804800020149005e
:100690008b05e900c909dd0083017000010032000b
:1006a00013002000c814de004814dd004709de00f6
:1006b0001200b200c808de00088470003b0007008a
:1006c00001f0a1000cf0a70001f0a0006e003700bf
:1006d0006120e100700032000801be000200be008f
:1006e000f7ff37006150e100fcff3a006a00370075
:1006f000889fbe008a9fbe000082700004027100c5
:1007000004827100260032000004be000200be0018
:100710006011b8006b092000950220000182cf0013
:100720000a0039000541b1000082cf0007003900fe
:100730000541b1000982cf00040039000541b10034
:100740000882cf00010039000541b1000542520086
:10075000120032000a003b008281710061016400d6
:100760008100d1000080d3008984d3000884d300a5
:100770008b05e8000442e800f7ff3a000700370065
:100780000804440089844c0000004800818048002f
:100790008b05e9000442e900f9ff3a000300070075
:1007a0004f05be004f04be0000000600810020007f
:1007b000618055000b003d000b00200061fe2f0002
:1007c0000100e1001d0034008281710061016400bc
:1007d0008904d1000884d3000000e800faff3a0041
:1007e00071002000610064000300700002006000de
:1007f0000900320061044400e0844c000988a5002f
:10080000050032008b05e8006808e10002003a00ac
:100810008904d1000884d300f20f20000258e100bf
:1008200005003d00c75ddd00f907b2008980750055
:1008300008007800000006000bf827008b00780005
:10084000000005000004be0060ff07000003be00ba
:100850000405be000200be005cff0700844f750067
:10086000000006000200be006450e10005003600f2
:100870006420e100020036000968a30001003a008c
:100880000800be000160a0004f0678004f05be00c2
:100890004f04be0000000600f0ff2f00f1ff27000c
:0408a000f9ff370025
:020000040000fa
:1008a4000000fa0074002000341688000002eb00f7
:1008b4006416880024002000941688000410200088
:1008c400c41688000002eb00f41688000500070037
:1008d4002f000700af000700920007000080fa0015
:1008e400000006000000fa00041580000480a10046
:1008f4000490a10004158800041580000450a00091
:100904000460a0000470a00004158800a042a800a0
:10091400a062a800141580000420a0000430a100e7
:100924000440a1000450a10014158800141580008f
:100934000480a0000490a00014158800a222a9003d
:1009440025158000f40f2e0004826200241588000f
:100954002515800004fc2f00048262000420a000fe
:10096400241588000002eb00341588000002eb0017
:100974005415880084ff2f00441588008560a90061
:100984008d60a800a1e2a8000080fa000000060023
:100994000000fa0024418000354180008502d10026
:1009a4000482d30004027800240e8800240e800000
:1009b40004024200050020000400be0000ff0700fe
:1009c4000002be003233230033f323000400be00d0
:1009d40012ff07000002be000400be00ddfe070097
:1009e4000002be0004027800b40e8800240e8000c9
:1009f40004024200050020000400be00f0fe0700cf
:100a04000002be003233230033f323000400be008f
:100a140002ff07000002be000400be00cdfe070076
:100a24000002be0004027800c40e8800240e800078
:100a340004024200050020000400be00e0fe07009e
:100a44000002be003233230033f323000400be004f
:100a5400f2fe07000002be000400be00bdfe070057
:100a64000002be0004027800d40e88000002eb00ed
:100a7400440e8800640e80000460a1000470a1008c
:100a8400640e8800650e800004fc2f00048262005e
:100a9400f401b300640e8800640e800004e0a10039
:100aa40004f0a100640e8800650e8000f40f2c0091
:100ab4008482620004f0210004827200640e8800c3
:100ac400040e80000420a1000430a100040e88005c
:100ad400040e80000400a1000410a000040e88008d
:100ae40024f02000540e8800c801a800c881a80082
:100af400c821a800c8a1a800c841a900c8c1a9006c
:100b0400d401a900d421a800d441a900d461a8002b
:100b1400d481a900d4a1a800c1e1a8000080fa00f2
:100b2400000006000000fa00340a80000400a1005e
:100b34000410a1000420a100340a880046e1a900a1
:100b440047a1a9004681a9004661a900340a800092
:100b54000450a1000460a100340a8800340a800013
:100b64000400a0000410a1000420a100340a88009d
:100b7400b40480000400a0000410a1000420a1001b
:100b8400b40488008480a9008c80a8000080fa0046
:100b9400000006000000fa00040320009408880006
:100ba4000002eb00540888000082eb0074088800ff
:100bb400b404800004c0a00004d0a10004e0a1009b
:100bc400b404880084e0a9008ce0a80013e1a80024
:100bd4000080fa00000006000000fa000080fa001d
:100be400000006000000fa000080fa000000060081
:100bf4000000fa00c1e1a8000080fa00000006002d
:020000040000fa
:100c040014080000100000000200000000000000b2
:100c140000000000000000000000000000000000d0
:100c240000000000000800001400000000000000a4
:100c3400240800000400000002000000a9020000d3
:080c44000000000000000000a8
:020000040000fa
:100c4c000000fa000300070013ff0700e0ff070095
:100c5c00feff37000000fa000080fa0000000600da
:020000040000fa
:0200000401f009
:04000000f63f0000c7
:020000040000fa
:0200000401f009
:04000400ff7f00007a
:020000040000fa
:0200000401f009
:040008006cff000089
:020000040000fa
:0200000401f009
:04001400ffff0000ea
:00000001FF
