:020000040000fa
:080000000001040000000000f3
:020000040000fa
:100008001c040000ec030000f2030000f8030000e9
:10001800fe0300001c0400001c0400001c04000077
:100028001c0400001c0400001c0400007e020000e8
:10003800cc0200001c0400001c040000c4020000e4
:100048001c0400001c0400001c04000094010000b3
:100058001c0400001c0400001c04000042020000f4
:100068001c0400001c0400001c0400001c04000008
:100078001c0400001c0400001c0400000c03000009
:100088001c0400001c0400001c0400001c040000e8
:100098001c0400001c0400001c0400001c040000d8
:1000a8001c0400001c0400001c0400001c040000c8
:1000b8001c0400001c0400001c0400001c040000b8
:1000c8001c0400001c0400001c0400001c040000a8
:1000d8001c0400001c0400001c0400001c04000098
:1000e8001c0400001c0400001c0400001c04000088
:0800f8001c0400001c040000c0
:020000040000fa
:100108001c040000040400000a040000100400009d
:10011800160400001c0400001c0400001c0400005d
:100128001c0400001c0400001c0400007e020000e7
:10013800cc0200001c0400001c040000c4020000e3
:100148001c0400001c0400001c04000094010000b2
:100158001c0400001c0400001c04000042020000f3
:100168001c0400001c0400001c0400001c04000007
:100178001c0400001c0400001c0400000c03000008
:100188001c0400001c0400001c0400001c040000e7
:100198001c0400001c0400001c0400001c040000d7
:1001a8001c0400001c0400001c0400001c040000c7
:1001b8001c0400001c0400001c0400001c040000b7
:1001c8001c0400001c0400001c0400001c040000a7
:1001d8001c0400001c0400001c0400001c04000097
:1001e8001c0400001c0400001c0400001c04000087
:0801f8001c0400001c040000bf
:020000040000fa
:100200004f9620000e9f20000e0188000000000085
:1002100000012000200288000c000700e0f220000e
:100220000100200011000700000020000000e00095
:100230000200320000000200000000008c0f0200eb
:10024000000000000040da000000fe004440a90069
:10025000000020000000e000030032000000200049
:10026000a00188004440a800000006009101880019
:10027000800078000000eb0015003700e2804000ad
:1002800032a0b4009101ba00e280400032a0b40074
:100290009102ba00e280400032a0b4000002eb00fc
:1002a000472bde00f507b200602ce10004003a00a5
:1002b0000059eb008301e900fdff3e000400370018
:1002c0006128e100010032000082eb000400070019
:1002d0001101ba000200e000e8ff3a000000060049
:1002e0003159ba008301e9000c0032002159ba00eb
:1002f0008301e900080032000400e00003003a0036
:10030000e280400032a0b400f5ff370011d9ba00f6
:100310008301e900faff3a008100e800e180400033
:1003200032a0b40000000600849fbe00869fbe007d
:100330000000fa00d6498000e7498000d4498000d7
:10034000e5498000402ade00050020000403530038
:1003500085835b0014148000050020000602420023
:1003600087824a00d4498800e5498800f649800020
:10037000074a8000f4498000054a8000402ade00d8
:10038000050020000403530085835b0024148000d3
:10039000050020000602420087824a00f4498800d6
:1003a000054a8800164a8000274a8000144a8000c7
:1003b000254a8000402ade00050020000403530087
:1003c00085835b0034148000050020000602420093
:1003d00087824a00144a8800254a8800464a8000dd
:1003e000d4498000e5498000402ade000500200055
:1003f000c233dd00068a200006834300048bbe0062
:10040000464a8000f4498000054a8000402ade0008
:1004100005002000c233dd00068020000683430073
:10042000048bbe00464a8000144a8000254a8000a2
:10043000402ade0005002000c233dd0006852000d2
:1004400006834300048bbe00444a80000402e80097
:10045000444a8800444a8000f30f520002003600ec
:100460000002eb00444a880004148000a44988007c
:100470008560a9000080fa004f03be004f02be0055
:1004800000400600841f78000000fa004416800037
:1004900068026200e00f52000b003a004416800030
:1004a00068026200e00f520010003a0014c0b3006e
:1004b0000002fd0056e9b7000002fd00cfc2a9000e
:1004c000c1e1a800090037004416800068026200fc
:1004d000e00f5200050032000042eb0004007800fb
:1004e00056e9b700cfc2a800c1e1a80085e0a90085
:1004f0000080fa004f02780000400600849fbe0092
:100500000000fa00944a80000402e800944a88003f
:10051000954a800044062000848f52001600360061
:100520000002eb00944a880014c0b3000002fd00f2
:1005300054e9b7000002fd00844a80000402e8008c
:10054000844a8800854a800044062000848f520037
:1005500009003600854a800024032000848f520061
:10056000050036000002eb00844a880014c0b30086
:100570000400780055e9b7008460a9000080fa0003
:100580004f02be00004006000000fa0084e0a9000f
:100590000080fa0000400600849fbe00861f78009d
:1005a0000400fa00240a8000040f7800240a800066
:1005b000140798008480a9001e0290009e0f52002c
:1005c00008003600344a80009e0290009e8252004d
:1005d00004034200048f200004024300050a78004f
:1005e00009003700344a8000750880001e835200dd
:1005f0009e0290008502430004034200048f200005
:1006000004024300050a78000080fa004f037800d6
:100610004f02be0000400600849fbe000000fa00aa
:1006200014c0b3000002fd004ce9b7000002fd0059
:100630001404800064026200e00f520006003200e1
:100640008240a9000042eb000002fd004ae9b70029
:100650000002fd00050037008240a80014c0b3006e
:100660000002fd004ae9b7000002fd00c49420002a
:1006700014427800e04f5200530032000042eb0079
:100680000002fd004ce9b7000002fd006495200067
:1006900014427800e04f52004b003200e4942000f6
:1006a000144278000404a200e04f520046003200d9
:1006b000d494200014427800e04f5200220032000f
:1006c000a4942000144278008482fb00b49420009b
:1006d000144278000404a2000482fb000482620039
:1006e000e00f52000700320014c0b3000002fd000a
:1006f0004be9b7000002fd00d501a900d541a800d3
:1007000031003700a4942000144278000404a200b1
:100710008482fb00b4942000144278000482fb0021
:1007200004826200e00f5200270032000042eb001a
:100730000002fd004be9b7000002fd00d501a80052
:10074000d541a90020003700a4942000144278006d
:100750008482fb00b4942000144278000404a200b8
:100760000482fb0004826200e00f520007003200a6
:1007700014c0b3000002fd004be9b7000002fd0009
:10078000d501a800d541a9000f003700a49420008e
:10079000144278000404a2008482fb00b494200078
:1007a000144278000482fb0004826200e00f5200d1
:1007b000050032000042eb00040078004be9b7006e
:1007c000d501a900d541a80086e0a9000080fa0063
:1007d0004f02be00004006000000fa008020a90081
:1007e000ffff37000000fa008060a900ffff37001c
:1007f0000000fa008040a900ffff37000000fa0067
:100800008080a900ffff37000000fa008020a900c7
:10081000ffff37000000fa008060a900ffff3700eb
:100820000000fa008040a900ffff37000000fa0036
:100830008080a900ffff37000000fa00ffff3700ab
:1008400003f0a200889fbe008a9fbe008c1f780024
:100850001b010700220133006450e1004f00320009
:100860006420e1005200320003826c0007003b006c
:100870000905d0000306d000820f54000c065d006d
:100880000200390002003200890178000306780076
:100890008582550004003d000003fd008103fd003a
:1008a0008502ea008b854200840f720002003b0043
:1008b00060001000e08018006011b8000005eb0037
:1008c0007a28e1000a00390006007800c75ddd00e3
:1008d000f707b200878075002d0037008281710014
:1008e0000a017800610560008180d1000080d3009a
:1008f0008502e900f9ff3b000604400087844800b8
:1009000002003b0060041400e0841c000988a3007e
:10091000070032008a8171008281710061016400e8
:100920008904d1000884d3008b05e8001700370044
:100930000978a30013003a000b00e0001300340014
:100940008b05e9000804440089844c000a447400c3
:100950000978a3000d003a000b00e0000700340006
:100960008b05e9000804440089844c0001003a002a
:100970000b0020000978a300f7ff32000001eb0014
:1009800002003700828171000a017800910007009f
:100990000cf0a70001f0a000da0037006420e100ad
:1009a00002003a00838f6c00da0033000801be00b9
:1009b0000200be00d3003700889fbe008a9fbe00a1
:1009c0008c1f7800be000700c500330003866c0052
:1009d0006450e1002e0032006420e1003300320058
:1009e0006150e1002f0032006120e100310032004f
:1009f00085855500eb07b0000900200008042000a1
:100a0000050037000804440089844c000a003100c6
:100a10000603430087834b000001530081815b0084
:100a2000f8ff33000203be000800a00008044400e1
:100a300089844c00f6ff3900c639dd00830173005c
:100a400001003200130020008904d1000884d30083
:100a50000998a300050032000800a7000300a000c9
:100a60008904d1000884d3008b05e8008904d100f3
:100a70000884d3000001eb000281d200550007007a
:100a800001f0a1000cf0a70001f0a0009d003700cc
:100a90006420e1009f0032000801be000200be0099
:100aa000f7ff37006120e1009a0032006000b800d3
:100ab000f3ff37000000200001f82700f0ff3700a7
:100ac00014002000ca003700f4ff2f00c8003700d0
:100ad0000001be00650007000470a70003f0a1003c
:100ae0006509b100160032000d0035006828e100ec
:100af00006003500f0ff2f00f1ff27000300e000a3
:100b000013003b0001002800000005000000400029
:100b1000818048008502e900fcff3a0008003700a8
:100b2000f88f420002003c008000eb00000005004e
:100b30008100d1000080d3008502e800fcff3a006c
:100b40000300e00002003b0060001000e08018009d
:100b5000000006000001be00440007000470a7006a
:100b600003f0a10003f8a30013003a006509b100e7
:100b700010003200090035006928e100020035004c
:100b800001002800000005000000400081804800ae
:100b90008502e900fcff3a0000000600f88f4200e1
:100ba000050035008100d1000080d3008502e800f7
:100bb000fcff3a00000006008000eb00000005008a
:100bc0004f89de0082017800a40037006011b80070
:100bd000b200370081002000618055000b003d000d
:100be0000b00200061fe2f000100e1001d00340019
:100bf00082817100610164008904d1000884d300fe
:100c00000000e800faff3a00710020006100640073
:100c1000030070000200600009003200610444001b
:100c2000e0844c000988a500050032008b05e8002f
:100c30006808e10002003a008904d1000884d3006a
:100c4000f20f20000258e10005003d00c75ddd0005
:100c5000f907b200898075000800780000000600de
:100c60000bf827008b00780000000500c70ade00a3
:100c7000f107b200f50fb20008003200e1cf4200e8
:100c8000020032000170a00024000500810f7000f6
:100c9000010032000408050044000500810f7000c7
:100ca00002003a00140005008502e900000040003f
:100cb00081c04800fcff3b000170a000240005003b
:100cc0000004be00e9ff07000003be000405be00eb
:100cd0000200be00e5ff0700844f7500000006001b
:100ce0000200be006450e100050036006420e1000f
:100cf000020036000968a30001003a000800be00a7
:100d00000160a0004f0678004f05be004f04be00f2
:100d100000000600f0ff2f00f1ff2700f9ff370069
:100d2000889fbe008a9fbe008c1f7800e4ff0700ea
:100d3000ebff330003866c006450e10024003200b6
:100d40006420e100270032006150e10022003200ff
:100d50006120e100210032008b854200eb07b100e9
:100d60000134b800003ab8000804420089844a00ff
:100d7000013ab8000030b8008880400009014a00fc
:100d80000400330000004000818048000201490057
:100d90008b05e900c909dd00830170000100320004
:100da00013002000c814de004814dd004709de00ef
:100db0001200b200c808de000884700085ff07003a
:100dc00001f0a1000cf0a70001f0a000cdff37005a
:100dd0006120e100cfff32000801be000200be002a
:100de000f7ff37006150e100fcff3a00c9ff370010
:100df000889fbe008a9fbe00841f7800b0ff070056
:100e00004f00780011003300f0ff2f00838f6c003b
:100e100006003b00040565000a00a7000800370033
:100e200009f0a6001000200008003700820f5400cf
:100e3000838f5c00030039001000200001003e0099
:100e40000000200009f0a7000000ea004f05be00e6
:100e50004f04be000000e00000000600881f78007c
:100e6000030478000300e00007003d00600010006c
:100e7000e080180060011900e081190002003b00c9
:100e800001f02d00030037000400070008f0a70060
:100e900001f0a0004f04780000000600889fbe000b
:100ea0008a9fbe00008270000402710004827100fb
:100eb000260032000004be000200be006011b8002f
:100ec0006b092000950220000182cf000a00390042
:100ed0000541b1000082cf00070039000541b10093
:100ee0000982cf00040039000541b1000882cf001b
:100ef000010039000541b1000542520012003200e4
:100f00000a003b0082817100610164008100d10010
:100f10000080d3008984d3000884d3008b05e800c7
:100f20000442e800f7ff3a000700370008044400d5
:100f300089844c0000004800818048008b05e9004e
:100f40000442e900f9ff3a0022ff07004f05be0006
:080f50004f04be000000060082
:020000040000fa
:100f58000000fa00f4002000341688000002eb00bc
:100f680064168800240020009416880004102000cd
:100f7800c41688000002eb00f4168800c0a0a80080
:100f8800d404800004c0a00004d0a00004e0a000a5
:100f9800d4048800c4a0a80085e0a9008de0a800ba
:100fa80020000700310007008200070092000700b8
:100fb80064000700d7020700a0000700441680005d
:100fc80068026200e00f52000b003a0044168000ed
:100fd80068026200e00f520010003a0014c0b3002b
:100fe8000002fd0056e9b7000002fd00cfc2a900cb
:100ff800c1e1a800090037004416800068026200b9
:10100800e00f5200050032000042eb0004007800b7
:1010180056e9b700cfc2a800c1e1a8000080fa00d5
:10102800000006000000fa0084ff2f004415880025
:10103800c40e2000041588003400200034158800f0
:101048000002eb0054158800243020002415880085
:10105800c4302000141588008560a9008d60a800a0
:10106800a1e2a8000080fa00000006000000fa00d3
:10107800044b8000154b80008502d1000482d30008
:1010880004027800240e88000002eb00b40e8800e9
:101098000002eb00c40e88000002eb00440e88003a
:1010a800640e80000460a1000470a100640e880032
:1010b800650e800004fc2f0004826200f401b30076
:1010c800640e8800640e800004e0a10004f0a10012
:1010d800640e8800650e8000f40f2c008482620084
:1010e80004f0210004827200640e8800040e80005f
:1010f8000420a1000430a100040e8800040e800022
:101108000400a1000410a000040e880024f02000b0
:10111800540e8800c801a800c881a800c821a800ea
:10112800c8a1a800c841a900c8c1a900d401a80045
:10113800d421a900d441a800d461a9000080fa00f4
:10114800000006000000fa00340a80000400a10034
:101158000410a1000420a100340a880046e1a90077
:1011680047a1a9004681a9004661a900340a800068
:101178000450a1000460a100340a8800340a8000e9
:101188000400a0000410a1000420a100340a880073
:10119800b40480000400a1000410a0000420a000f2
:1011a800b40488008480a9008c80a8000080fa001c
:1011b800000006000000fa000002eb002408880086
:1011c8000002eb0004088800244d20001408880061
:1011d800a404800004c0a00004d0a10004e0a10081
:1011e800a40488008460a9008c60a80005e1a80018
:1011f8000080fa00000006000000fa000403200046
:10120800940888000002eb00540888000082eb0074
:1012180074088800b404800004c0a00004d0a100b1
:1012280004e0a100b404880084e0a9008ce0a800d0
:1012380013e1a8000080fa00000006000000fa0090
:10124800c882a8000042eb000002fd0055e9b70083
:101258000002fd00000000005495200014427800b0
:101268000404a200e04f5200fbff3a00c8a2a80005
:101278000042eb000002fd0055e9b7000002fd0046
:101288000000000054952000144278000404a200d5
:10129800e04f5200fbff3a00cfa2a8000042eb004b
:1012a8000002fd0055e9b7000002fd000000000043
:1012b80054952000144278000404a200e04f520024
:1012c800fbff3a00d402a8000042eb000002fd0038
:1012d80055e9b7000002fd00000000005495200009
:1012e800144278000404a200e04f5200fbff3a00c9
:1012f800c882a900c8a2a900d402a900cfa2a90047
:101308000080fa00000006000000fa00889fbe0076
:101318008a9fbe006495200014427800e04f520076
:10132800aa003200d4498000e5498000402bde0045
:1013380007002000740c200005002000840f5300d3
:10134800858f5b0077003600d4498000e54980002e
:10135800402bde0007002000442420000500200068
:10136800840f5300858f5b006e003e00d4498000d7
:10137800e5498000402bde0007002000f41d200016
:1013880005002000840f5300858f5b00190036008c
:10139800d4498000e5498000402bde00070020008a
:1013a8004424200005002000840f5300858f5b0033
:1013b80010003e00c882a800c8a2a900d402a90053
:1013c8000042eb000002fd0006e9b7000002fd0044
:1013d8000042eb000002fd004ee9b7000002fd00ec
:1013e8000042eb000002fd004de9b7000002fd00dd
:1013f8004a003700d4498000e5498000402bde00d0
:1014080007002000d41b200005002000840f530093
:10141800858f5b0019003e00d4498000e5498000b3
:10142800402bde0007002000740c2000050020007f
:10143800840f5300858f5b0010003600c882a90016
:10144800c8a2a800d402a90014c0b3000002fd007d
:1014580006e9b7000002fd000042eb000002fd00b3
:101468004ee9b7000002fd0014c0b3000002fd0001
:101478004de9b7000002fd0028003700d44980007c
:10148800e5498000402bde0007002000c41b200037
:1014980005002000840f5300858f5b00550036003f
:1014a800d4498000e5498000402bde000700200079
:1014b800041e200005002000840f5300858f5b0068
:1014c8004e003e005495200014427800e04f520030
:1014d8004c0032000042eb000002fd0055e9b70065
:1014e8000002fd00c882a900c8a2a900d402a80071
:1014f80014c0b3000002fd004ee9b7000002fd0071
:10150800d501a900d541a9000002eb00b40e88005e
:101518000002eb00c40e88003d0037000000000008
:101528003b0037005495200014427800e04f5200e9
:10153800360032000042eb000002fd0055e9b7001a
:101548000002fd00441680004422de006142620071
:1015580004c2ea00614262000482fb006102620088
:101568004422dd0046168000f5fe2f008502630048
:101578000482720044168800441680004522de006a
:101588006142620004c2ea00614262000482fb0018
:10159800610262004522dd0046168000f5fd2f003d
:1015a800850263000482720044168800d402a900f0
:1015b800d501a900d541a9000002eb00b40e8800ae
:1015c8000002eb00c40e880011003700d402a90005
:1015d800c882a900c8a2a900d501a900d541a900bf
:1015e8000002eb00b40e88000002eb00c40e880075
:1015f8000700370000000000050037000000000069
:101608000300370000000000010037000000000060
:10161800d4498000e5498000402bde000700200007
:10162800740c200005002000840f5300858f5b0098
:1016380033013600d4498000e5498000402bde00a4
:10164800070020004424200005002000840f5300d8
:10165800858f5b002a013e006490200014427800c8
:10166800e04f520023003200240e800004024200a2
:10167800050020000400be0052fd07000004be0063
:10168800b40e8000050020000400be004dfd0700d8
:101698000005be0084498000cfa2de000400be0021
:1016a80045fd07000002be000200200003fc2300e5
:1016b8000400be00befc07000002be000401be001c
:1016c8000a00be005cfc07000002be000401be0068
:1016d8000800be0058fc07000002be000400be005f
:1016e8001afd07000002be0004027800b40e88004c
:1016f80018003700b40e8000050020000400be006a
:1017080030fd07000004be0084498000cfa2de003f
:101718000400be0028fd07000002be0002002000f1
:1017280003fc23000400be00a1fc07000002be0069
:101738000401be000800be003ffc07000002be0016
:101748000400be0001fd07000002be00040278008c
:10175800b40e8800b40e8000050020000400be000e
:1017680018fd07000004be00240e80000402420099
:10177800050020000400be0012fd07000002be00a4
:101788003233230033f723000400be0062fd070054
:101798000002be001ac0b3000401be000800be006b
:1017a800c7fc070000027800e00f520001003c006f
:1017b8000045eb00e04f550010003200240e800079
:1017c80004024200050020000400be00fdfc0700e2
:1017d8000002be003233230033f723000400be00aa
:1017e8004dfd07000002be000400be00d7fc070044
:1017f8000002be0004027800b40e8800b40e800017
:10180800050020000400be00eefc07000004be0036
:10181800240e800004024200050020000400be00df
:10182800e8fc07000002be00d2cc2c00c3d4230081
:101838000400be0038fd07000002be001ac0b30055
:101848000401be000800be009bfc070000027800ef
:10185800e00f5200010035000045eb00e04f550055
:1018680010003200240e800004024200050020000f
:101878000400be00d3fc07000002be00d2cc2c003e
:10188800c3d423000400be0023fd07000002be00ed
:101898000400be00adfc07000002be000402780090
:1018a800b40e88006490200014427800e04f520083
:1018b80023003200240e80000402420005002000ac
:1018c8000400be00bffc07000004be00c40e800078
:1018d800050020000400be00bafc07000005be0099
:1018e80084498000cfa2de000400be00b2fc0700dd
:1018f8000002be000200200003fc23000400be001a
:101908002bfc07000002be000401be000a00be0056
:10191800c9fb07000002be000401be000800be00ab
:10192800c5fb07000002be000400be0087fc0700dc
:101938000002be0004027800c40e880018003700b8
:10194800c40e8000050020000400be009dfc0700b6
:101958000004be0084498000cfa2de000400be005f
:1019680095fc07000002be000200200003fc2300d3
:101978000400be000efc07000002be000401be0009
:101988000800be00acfb07000002be000400be0059
:101998006efc07000002be0004027800c40e880036
:1019a800c40e8000050020000400be0085fc07006e
:1019b8000004be00240e800004024200050020003e
:1019c8000400be007ffc07000002be003233230083
:1019d80033f723000400be00cffc07000002be005e
:1019e8001ac0b3000401be000800be0034fc0700a2
:1019f80000027800e00f520001003c000045eb00b7
:101a0800e04f550010003200240e8000040242000e
:101a1800050020000400be006afc07000002be00aa
:101a28003233230033f723000400be00bafc07005a
:101a38000002be000400be0044fc07000002be0015
:101a480004027800c40e8800c40e8000050020003f
:101a58000400be005bfc07000004be00240e8000ea
:101a680004024200050020000400be0055fc0700e7
:101a78000002be00d2cc2c00c3d423000400be0058
:101a8800a5fc07000002be001ac0b3000401be0096
:101a98000800be0008fc070000027800e00f5200b2
:101aa800010035000045eb00e04f55001000320002
:101ab800240e800004024200050020000400be003d
:101ac80040fc07000002be00d2cc2c00c3d4230087
:101ad8000400be0090fc07000002be000400be0027
:101ae8001afc07000002be0004027800c40e880039
:101af8000042eb000002fd0054e9b7000002fd00bf
:101b0800180007004f05be004f04be000080fa0011
:101b1800000006000000fa008240a90086e0a90043
:101b2800f404800004c0a00004d0a00004e0a000d9
:101b3800f40488008ee0a8000080fa000000060087
:101b48000000fa00050e80000400280004826200ec
:101b5800e00f520001003200c1e1a8000080fa0045
:101b6800000006000000fa00881f78000002eb0061
:101b780084498800f4498000054a8000402ade0034
:101b8800050020000400be000efc07000002be0095
:101b98004448880055488800864880009748800057
:101ba80044488000554880000401be000600be007d
:101bb80021fb07000002be00e44a8800f54a8800bd
:101bc800e44a8000f54a80000400be00befb07001e
:101bd8000002be000402780004f0a7000402ea0034
:101be800e50f52000b003400a6488000b74880007b
:101bf800e44a8000f54a80000401be000600be00e9
:101c08000efb07000002be00a4488800b548880003
:101c18002f003700e44a8000f54a80000400be0027
:101c2800a9fb07000002be000402780084027800c5
:101c380005f0a7008502ea00843e2000848f520048
:101c480023003400e44a8000f54a800018c0b3003d
:101c580002002000a34724000400be0098fb0700f0
:101c680000027800e00f520001003c000044eb0045
:101c7800e04f54000500320004002000a54724006e
:101c8800a4488800b548880011003700e44a80005d
:101c9800f54a800018c0b30002002000a3472c00ba
:101ca8000400be0084fb070000027800e00f520029
:101cb800010035000044eb00e04f540004003200fe
:101cc80004002000a5472c00a4488800b5488800d7
:101cd800e64a8000f74a80002449800035498000a0
:101ce8000401be000600be000bfc07000002be0097
:101cf800c4488800d5488800a6488000b7488000b6
:101d080044498000554980000401be000600be0019
:101d180001fc07000002be00e4488800f54888007e
:101d2800e64a8000f74a80006448800075488000d1
:101d38000401be000600be00bffa07000002be0094
:101d4800a2702d0033c223000400be0018fb070058
:101d58000002be000403be0064498000754980008b
:101d68000401be000600be00ebfb07000002be0037
:101d78000449880015498800c4488000d548800077
:101d88000400be0050fb07000002be0004047800f7
:101d9800e4488000f54880000400be004afb0700c4
:101da8000002be000402780004024400cfa2de0054
:101db8000400be0080fb07000003be000449800049
:101dc800154980000401be000600be009bfa07000a
:101dd8000002be000400be003bfb07000002be007c
:101de800040278008449880084498000e00f52008a
:101df80009003d00d402a800cfa2a90085498000af
:101e080084c12f00848f52000b003d0084c12f0035
:101e18008449880008003700cfa2a800d402a9008e
:101e280085498000843e2000848f520002003400df
:101e3800843e200084498800e44a8000f54a8000f6
:101e480064488800754888004f0478000080fa00cc
:041e58000000060080
:020000040000fa
:101e5c003209000026000000020000000000000013
:101e6c000000000000000000000000000000000066
:101e7c000000000000000000000000000000000056
:101e8c000000000000000000000000000000000046
:101e9c0000080000040100000000000060090000c0
:101eac000400000002000000a90200000000000075
:101ebc0058090000080000000000000004090000a0
:101ecc002e000000020000000000000000000000d6
:101edc0000000000000000000000f00043000000c3
:101eec0000000000000000000000000000000000e6
:101efc000000cd00cccc3d00ec51b8003d00000002
:0c1f0c00000000000000000000000000c9
:020000040000fa
:101f18000000fa00030007000dfc0700fafc0700a8
:101f2800feff37000000fa000080fa0000000600fb
:020000040000fa
:0200000401f009
:04000000f63f0000c7
:020000040000fa
:0200000401f009
:04000400ff7f00007a
:020000040000fa
:0200000401f009
:04000800cffb00002a
:020000040000fa
:0200000401f009
:04001400ffff0000ea
:00000001FF
